{
  "_format": "hh-sol-artifact-1",
  "contractName": "Loethery",
  "sourceName": "contracts/Loethery.sol",
  "abi": [
    {
      "inputs": [
        {
          "internalType": "uint64",
          "name": "subscriptionId",
          "type": "uint64"
        }
      ],
      "stateMutability": "nonpayable",
      "type": "constructor"
    },
    {
      "inputs": [
        {
          "internalType": "address",
          "name": "have",
          "type": "address"
        },
        {
          "internalType": "address",
          "name": "want",
          "type": "address"
        }
      ],
      "name": "OnlyCoordinatorCanFulfill",
      "type": "error"
    },
    {
      "inputs": [],
      "name": "buyEntry",
      "outputs": [],
      "stateMutability": "payable",
      "type": "function"
    },
    {
      "inputs": [
        {
          "internalType": "uint256",
          "name": "_lotteryDate",
          "type": "uint256"
        }
      ],
      "name": "dateSet",
      "outputs": [],
      "stateMutability": "nonpayable",
      "type": "function"
    },
    {
      "inputs": [],
      "name": "finishLottery",
      "outputs": [],
      "stateMutability": "payable",
      "type": "function"
    },
    {
      "inputs": [],
      "name": "getPlayers",
      "outputs": [
        {
          "internalType": "address payable[]",
          "name": "",
          "type": "address[]"
        }
      ],
      "stateMutability": "view",
      "type": "function"
    },
    {
      "inputs": [],
      "name": "getPotTotal",
      "outputs": [
        {
          "internalType": "uint256",
          "name": "",
          "type": "uint256"
        }
      ],
      "stateMutability": "view",
      "type": "function"
    },
    {
      "inputs": [
        {
          "internalType": "address",
          "name": "_user",
          "type": "address"
        }
      ],
      "name": "isParticipating",
      "outputs": [
        {
          "internalType": "bool",
          "name": "",
          "type": "bool"
        }
      ],
      "stateMutability": "view",
      "type": "function"
    },
    {
      "inputs": [
        {
          "internalType": "uint256",
          "name": "",
          "type": "uint256"
        }
      ],
      "name": "lotteryHistory",
      "outputs": [
        {
          "internalType": "string",
          "name": "lotteryName",
          "type": "string"
        },
        {
          "internalType": "uint256",
          "name": "lotteryDate",
          "type": "uint256"
        }
      ],
      "stateMutability": "view",
      "type": "function"
    },
    {
      "inputs": [],
      "name": "lotteryId",
      "outputs": [
        {
          "internalType": "uint32",
          "name": "",
          "type": "uint32"
        }
      ],
      "stateMutability": "view",
      "type": "function"
    },
    {
      "inputs": [
        {
          "internalType": "string",
          "name": "_name",
          "type": "string"
        }
      ],
      "name": "nameSet",
      "outputs": [],
      "stateMutability": "nonpayable",
      "type": "function"
    },
    {
      "inputs": [
        {
          "internalType": "uint256",
          "name": "",
          "type": "uint256"
        }
      ],
      "name": "players",
      "outputs": [
        {
          "internalType": "address payable",
          "name": "",
          "type": "address"
        }
      ],
      "stateMutability": "view",
      "type": "function"
    },
    {
      "inputs": [
        {
          "internalType": "uint256",
          "name": "_cost",
          "type": "uint256"
        }
      ],
      "name": "priceSet",
      "outputs": [],
      "stateMutability": "nonpayable",
      "type": "function"
    },
    {
      "inputs": [
        {
          "internalType": "uint256",
          "name": "requestId",
          "type": "uint256"
        },
        {
          "internalType": "uint256[]",
          "name": "randomWords",
          "type": "uint256[]"
        }
      ],
      "name": "rawFulfillRandomWords",
      "outputs": [],
      "stateMutability": "nonpayable",
      "type": "function"
    },
    {
      "inputs": [
        {
          "internalType": "uint256",
          "name": "id",
          "type": "uint256"
        }
      ],
      "name": "retrieveLotteryHistory",
      "outputs": [
        {
          "components": [
            {
              "internalType": "address[]",
              "name": "winners",
              "type": "address[]"
            },
            {
              "internalType": "string",
              "name": "lotteryName",
              "type": "string"
            },
            {
              "internalType": "uint256",
              "name": "lotteryDate",
              "type": "uint256"
            }
          ],
          "internalType": "struct Loethery.Lottery",
          "name": "",
          "type": "tuple"
        }
      ],
      "stateMutability": "view",
      "type": "function"
    },
    {
      "inputs": [
        {
          "internalType": "uint256",
          "name": "",
          "type": "uint256"
        }
      ],
      "name": "s_randomWords",
      "outputs": [
        {
          "internalType": "uint256",
          "name": "",
          "type": "uint256"
        }
      ],
      "stateMutability": "view",
      "type": "function"
    },
    {
      "inputs": [],
      "name": "s_requestId",
      "outputs": [
        {
          "internalType": "uint256",
          "name": "",
          "type": "uint256"
        }
      ],
      "stateMutability": "view",
      "type": "function"
    },
    {
      "inputs": [
        {
          "internalType": "uint256",
          "name": "_cost",
          "type": "uint256"
        },
        {
          "internalType": "string",
          "name": "_lotteryName",
          "type": "string"
        },
        {
          "internalType": "uint256",
          "name": "_lotteryDate",
          "type": "uint256"
        }
      ],
      "name": "startLottery",
      "outputs": [],
      "stateMutability": "nonpayable",
      "type": "function"
    },
    {
      "inputs": [],
      "name": "withdraw",
      "outputs": [],
      "stateMutability": "payable",
      "type": "function"
    }
  ],
  "bytecode": "0x60a0604052736168499c0cffcacd319c818142124b7a15e857ab600260006101000a81548173ffffffffffffffffffffffffffffffffffffffff021916908373ffffffffffffffffffffffffffffffffffffffff1602179055507301be23585060835e02b77ef475b0cc51aa1e0709600360006101000a81548173ffffffffffffffffffffffffffffffffffffffff021916908373ffffffffffffffffffffffffffffffffffffffff1602179055507fd89b2bf150e3b9e13446986e571fb9cab24b13cea0a43ea20a6049a85cc807cc60001b600455620186a0600560006101000a81548163ffffffff021916908363ffffffff1602179055506003600560046101000a81548161ffff021916908361ffff1602179055506002600560066101000a81548163ffffffff021916908363ffffffff160217905550662386f26fc10000600b556040518060400160405280604660ff168152602001601960ff16815250600c9060026200017392919062000375565b506001600d60006101000a81548160ff0219169083151502179055503480156200019c57600080fd5b5060405162002472380380620024728339818101604052810190620001c2919062000402565b600260009054906101000a900473ffffffffffffffffffffffffffffffffffffffff168073ffffffffffffffffffffffffffffffffffffffff1660808173ffffffffffffffffffffffffffffffffffffffff1660601b8152505050600260009054906101000a900473ffffffffffffffffffffffffffffffffffffffff166000806101000a81548173ffffffffffffffffffffffffffffffffffffffff021916908373ffffffffffffffffffffffffffffffffffffffff160217905550600360009054906101000a900473ffffffffffffffffffffffffffffffffffffffff16600160006101000a81548173ffffffffffffffffffffffffffffffffffffffff021916908373ffffffffffffffffffffffffffffffffffffffff16021790555033600860006101000a81548173ffffffffffffffffffffffffffffffffffffffff021916908373ffffffffffffffffffffffffffffffffffffffff16021790555080600160146101000a81548167ffffffffffffffff021916908367ffffffffffffffff1602179055506000600860146101000a81548163ffffffff021916908363ffffffff1602179055505062000467565b828054828255906000526020600020908101928215620003b9579160200282015b82811115620003b8578251829060ff1690559160200191906001019062000396565b5b509050620003c89190620003cc565b5090565b5b80821115620003e7576000816000905550600101620003cd565b5090565b600081519050620003fc816200044d565b92915050565b6000602082840312156200041b576200041a62000448565b5b60006200042b84828501620003eb565b91505092915050565b600067ffffffffffffffff82169050919050565b600080fd5b620004588162000434565b81146200046457600080fd5b50565b60805160601c611fe56200048d6000396000818161046b01526104bf0152611fe56000f3fe6080604052600436106100fe5760003560e01c8063c659f94611610095578063edeefa3111610064578063edeefa31146102af578063f4caee88146102d8578063f6eaffc814610315578063f71d96cb14610352578063f7a57a241461038f576100fe565b8063c659f94614610205578063cc77857f14610230578063e580f47b14610259578063e89e106a14610284576100fe565b80633ccfd60b116100d15780633ccfd60b146101695780636d6fe2301461017357806382231ec6146101b15780638b5b9ccc146101da576100fe565b80631a1ec86e146101035780631fe543e31461012c5780632c906ba21461015557806335c13f301461015f575b600080fd5b34801561010f57600080fd5b5061012a6004803603810190610125919061152f565b6103cc565b005b34801561013857600080fd5b50610153600480360381019061014e91906114d3565b610469565b005b61015d610529565b005b61016761084c565b005b61017161098f565b005b34801561017f57600080fd5b5061019a60048036038101906101959190611479565b610a32565b6040516101a892919061196d565b60405180910390f35b3480156101bd57600080fd5b506101d860048036038101906101d39190611479565b610ade565b005b3480156101e657600080fd5b506101ef610b54565b6040516101fc91906118dd565b60405180910390f35b34801561021157600080fd5b5061021a610be2565b6040516102279190611a1f565b60405180910390f35b34801561023c57600080fd5b5061025760048036038101906102529190611479565b610bea565b005b34801561026557600080fd5b5061026e610c7a565b60405161027b9190611a3a565b60405180910390f35b34801561029057600080fd5b50610299610c90565b6040516102a69190611a1f565b60405180910390f35b3480156102bb57600080fd5b506102d660048036038101906102d19190611430565b610c96565b005b3480156102e457600080fd5b506102ff60048036038101906102fa9190611403565b610d36565b60405161030c91906118ff565b60405180910390f35b34801561032157600080fd5b5061033c60048036038101906103379190611479565b610de5565b6040516103499190611a1f565b60405180910390f35b34801561035e57600080fd5b5061037960048036038101906103749190611479565b610e09565b6040516103869190611899565b60405180910390f35b34801561039b57600080fd5b506103b660048036038101906103b19190611479565b610e48565b6040516103c391906119fd565b60405180910390f35b600860009054906101000a900473ffffffffffffffffffffffffffffffffffffffff1673ffffffffffffffffffffffffffffffffffffffff163373ffffffffffffffffffffffffffffffffffffffff161461042657600080fd5b61042e610f9f565b61043781610bea565b61044083610ade565b61044982610c96565b6000600d60006101000a81548160ff021916908315150217905550505050565b7f000000000000000000000000000000000000000000000000000000000000000073ffffffffffffffffffffffffffffffffffffffff163373ffffffffffffffffffffffffffffffffffffffff161461051b57337f00000000000000000000000000000000000000000000000000000000000000006040517f1cf993f40000000000000000000000000000000000000000000000000000000081526004016105129291906118b4565b60405180910390fd5b6105258282611100565b5050565b600860009054906101000a900473ffffffffffffffffffffffffffffffffffffffff1673ffffffffffffffffffffffffffffffffffffffff163373ffffffffffffffffffffffffffffffffffffffff161461058357600080fd5b6001600d60006101000a81548160ff02191690831515021790555060005b60028110156107a8576000600a80549050600683815481106105c6576105c5611e7b565b5b90600052602060002001546105db9190611dbd565b905060096000600860149054906101000a900463ffffffff1663ffffffff168152602001908152602001600020600001600a828154811061061f5761061e611e7b565b5b9060005260206000200160009054906101000a900473ffffffffffffffffffffffffffffffffffffffff169080600181540180825580915050600190039060005260206000200160009091909190916101000a81548173ffffffffffffffffffffffffffffffffffffffff021916908373ffffffffffffffffffffffffffffffffffffffff1602179055506000600a82815481106106c0576106bf611e7b565b5b9060005260206000200160009054906101000a900473ffffffffffffffffffffffffffffffffffffffff1673ffffffffffffffffffffffffffffffffffffffff166064600c858154811061071757610716611e7b565b5b90600052602060002001544761072d9190611bb2565b6107379190611b81565b60405161074390611884565b60006040518083038185875af1925050503d8060008114610780576040519150601f19603f3d011682016040523d82523d6000602084013e610785565b606091505b505090508061079357600080fd5b505080806107a090611d47565b9150506105a1565b506008601481819054906101000a900463ffffffff16809291906107cb90611d90565b91906101000a81548163ffffffff021916908363ffffffff16021790555050600067ffffffffffffffff81111561080557610804611eaa565b5b6040519080825280602002602001820160405280156108335781602001602082028036833780820191505090505b50600a908051906020019061084992919061111b565b50565b600d60009054906101000a900460ff161561089c576040517f08c379a0000000000000000000000000000000000000000000000000000000008152600401610893906119dd565b60405180910390fd5b6108a533610d36565b156108e5576040517f08c379a00000000000000000000000000000000000000000000000000000000081526004016108dc906119bd565b60405180910390fd5b600b5434101561092a576040517f08c379a00000000000000000000000000000000000000000000000000000000081526004016109219061199d565b60405180910390fd5b600a339080600181540180825580915050600190039060005260206000200160009091909190916101000a81548173ffffffffffffffffffffffffffffffffffffffff021916908373ffffffffffffffffffffffffffffffffffffffff160217905550565b600860009054906101000a900473ffffffffffffffffffffffffffffffffffffffff1673ffffffffffffffffffffffffffffffffffffffff163373ffffffffffffffffffffffffffffffffffffffff16146109e957600080fd5b3373ffffffffffffffffffffffffffffffffffffffff166108fc479081150290604051600060405180830381858888f19350505050158015610a2f573d6000803e3d6000fd5b50565b6009602052806000526040600020600091509050806001018054610a5590611ce4565b80601f0160208091040260200160405190810160405280929190818152602001828054610a8190611ce4565b8015610ace5780601f10610aa357610100808354040283529160200191610ace565b820191906000526020600020905b815481529060010190602001808311610ab157829003601f168201915b5050505050908060020154905082565b600860009054906101000a900473ffffffffffffffffffffffffffffffffffffffff1673ffffffffffffffffffffffffffffffffffffffff163373ffffffffffffffffffffffffffffffffffffffff1614610b3857600080fd5b662386f26fc1000081610b4b9190611bb2565b600b8190555050565b6060600a805480602002602001604051908101604052809291908181526020018280548015610bd857602002820191906000526020600020905b8160009054906101000a900473ffffffffffffffffffffffffffffffffffffffff1673ffffffffffffffffffffffffffffffffffffffff1681526020019060010190808311610b8e575b5050505050905090565b600047905090565b600860009054906101000a900473ffffffffffffffffffffffffffffffffffffffff1673ffffffffffffffffffffffffffffffffffffffff163373ffffffffffffffffffffffffffffffffffffffff1614610c4457600080fd5b8060096000600860149054906101000a900463ffffffff1663ffffffff1681526020019081526020016000206002018190555050565b600860149054906101000a900463ffffffff1681565b60075481565b600860009054906101000a900473ffffffffffffffffffffffffffffffffffffffff1673ffffffffffffffffffffffffffffffffffffffff163373ffffffffffffffffffffffffffffffffffffffff1614610cf057600080fd5b8060096000600860149054906101000a900463ffffffff1663ffffffff1681526020019081526020016000206001019080519060200190610d329291906111a5565b5050565b600080600090505b600a80549050811015610dda578273ffffffffffffffffffffffffffffffffffffffff16600a8281548110610d7657610d75611e7b565b5b9060005260206000200160009054906101000a900473ffffffffffffffffffffffffffffffffffffffff1673ffffffffffffffffffffffffffffffffffffffff161415610dc7576001915050610de0565b8080610dd290611d47565b915050610d3e565b50600090505b919050565b60068181548110610df557600080fd5b906000526020600020016000915090505481565b600a8181548110610e1957600080fd5b906000526020600020016000915054906101000a900473ffffffffffffffffffffffffffffffffffffffff1681565b610e5061122b565b6009600083815260200190815260200160002060405180606001604052908160008201805480602002602001604051908101604052809291908181526020018280548015610ef357602002820191906000526020600020905b8160009054906101000a900473ffffffffffffffffffffffffffffffffffffffff1673ffffffffffffffffffffffffffffffffffffffff1681526020019060010190808311610ea9575b50505050508152602001600182018054610f0c90611ce4565b80601f0160208091040260200160405190810160405280929190818152602001828054610f3890611ce4565b8015610f855780601f10610f5a57610100808354040283529160200191610f85565b820191906000526020600020905b815481529060010190602001808311610f6857829003601f168201915b505050505081526020016002820154815250509050919050565b600860009054906101000a900473ffffffffffffffffffffffffffffffffffffffff1673ffffffffffffffffffffffffffffffffffffffff163373ffffffffffffffffffffffffffffffffffffffff1614610ff957600080fd5b60008054906101000a900473ffffffffffffffffffffffffffffffffffffffff1673ffffffffffffffffffffffffffffffffffffffff16635d3b1d30600454600160149054906101000a900467ffffffffffffffff16600560049054906101000a900461ffff16600560009054906101000a900463ffffffff16600560069054906101000a900463ffffffff166040518663ffffffff1660e01b81526004016110a695949392919061191a565b602060405180830381600087803b1580156110c057600080fd5b505af11580156110d4573d6000803e3d6000fd5b505050506040513d601f19601f820116820180604052508101906110f891906114a6565b600781905550565b806006908051906020019061111692919061124c565b505050565b828054828255906000526020600020908101928215611194579160200282015b828111156111935782518260006101000a81548173ffffffffffffffffffffffffffffffffffffffff021916908373ffffffffffffffffffffffffffffffffffffffff1602179055509160200191906001019061113b565b5b5090506111a19190611299565b5090565b8280546111b190611ce4565b90600052602060002090601f0160209004810192826111d3576000855561121a565b82601f106111ec57805160ff191683800117855561121a565b8280016001018555821561121a579182015b828111156112195782518255916020019190600101906111fe565b5b5090506112279190611299565b5090565b60405180606001604052806060815260200160608152602001600081525090565b828054828255906000526020600020908101928215611288579160200282015b8281111561128757825182559160200191906001019061126c565b5b5090506112959190611299565b5090565b5b808211156112b257600081600090555060010161129a565b5090565b60006112c96112c484611a7a565b611a55565b905080838252602082019050828560208602820111156112ec576112eb611ede565b5b60005b8581101561131c578161130288826113d9565b8452602084019350602083019250506001810190506112ef565b5050509392505050565b600061133961133484611aa6565b611a55565b90508281526020810184848401111561135557611354611ee3565b5b611360848285611ca2565b509392505050565b60008135905061137781611f81565b92915050565b600082601f83011261139257611391611ed9565b5b81356113a28482602086016112b6565b91505092915050565b600082601f8301126113c0576113bf611ed9565b5b81356113d0848260208601611326565b91505092915050565b6000813590506113e881611f98565b92915050565b6000815190506113fd81611f98565b92915050565b60006020828403121561141957611418611eed565b5b600061142784828501611368565b91505092915050565b60006020828403121561144657611445611eed565b5b600082013567ffffffffffffffff81111561146457611463611ee8565b5b611470848285016113ab565b91505092915050565b60006020828403121561148f5761148e611eed565b5b600061149d848285016113d9565b91505092915050565b6000602082840312156114bc576114bb611eed565b5b60006114ca848285016113ee565b91505092915050565b600080604083850312156114ea576114e9611eed565b5b60006114f8858286016113d9565b925050602083013567ffffffffffffffff81111561151957611518611ee8565b5b6115258582860161137d565b9150509250929050565b60008060006060848603121561154857611547611eed565b5b6000611556868287016113d9565b935050602084013567ffffffffffffffff81111561157757611576611ee8565b5b611583868287016113ab565b9250506040611594868287016113d9565b9150509250925092565b60006115aa83836115ce565b60208301905092915050565b60006115c283836115ec565b60208301905092915050565b6115d781611c1e565b82525050565b6115e681611c1e565b82525050565b6115f581611c0c565b82525050565b61160481611c0c565b82525050565b600061161582611af7565b61161f8185611b32565b935061162a83611ad7565b8060005b8381101561165b57815161164288826115b6565b975061164d83611b18565b92505060018101905061162e565b5085935050505092915050565b600061167382611b02565b61167d8185611b43565b935061168883611ae7565b8060005b838110156116b95781516116a0888261159e565b97506116ab83611b25565b92505060018101905061168c565b5085935050505092915050565b6116cf81611c30565b82525050565b6116de81611c3c565b82525050565b60006116ef82611b0d565b6116f98185611b5f565b9350611709818560208601611cb1565b61171281611ef2565b840191505092915050565b600061172882611b0d565b6117328185611b70565b9350611742818560208601611cb1565b61174b81611ef2565b840191505092915050565b6000611763601b83611b70565b915061176e82611f03565b602082019050919050565b6000611786600083611b54565b915061179182611f2c565b600082019050919050565b60006117a9601a83611b70565b91506117b482611f2f565b602082019050919050565b60006117cc601283611b70565b91506117d782611f58565b602082019050919050565b600060608301600083015184820360008601526117ff828261160a565b9150506020830151848203602086015261181982826116e4565b915050604083015161182e6040860182611848565b508091505092915050565b61184281611c46565b82525050565b61185181611c74565b82525050565b61186081611c74565b82525050565b61186f81611c7e565b82525050565b61187e81611c8e565b82525050565b600061188f82611779565b9150819050919050565b60006020820190506118ae60008301846115dd565b92915050565b60006040820190506118c960008301856115fb565b6118d660208301846115fb565b9392505050565b600060208201905081810360008301526118f78184611668565b905092915050565b600060208201905061191460008301846116c6565b92915050565b600060a08201905061192f60008301886116d5565b61193c6020830187611875565b6119496040830186611839565b6119566060830185611866565b6119636080830184611866565b9695505050505050565b60006040820190508181036000830152611987818561171d565b90506119966020830184611857565b9392505050565b600060208201905081810360008301526119b681611756565b9050919050565b600060208201905081810360008301526119d68161179c565b9050919050565b600060208201905081810360008301526119f6816117bf565b9050919050565b60006020820190508181036000830152611a1781846117e2565b905092915050565b6000602082019050611a346000830184611857565b92915050565b6000602082019050611a4f6000830184611866565b92915050565b6000611a5f611a70565b9050611a6b8282611d16565b919050565b6000604051905090565b600067ffffffffffffffff821115611a9557611a94611eaa565b5b602082029050602081019050919050565b600067ffffffffffffffff821115611ac157611ac0611eaa565b5b611aca82611ef2565b9050602081019050919050565b6000819050602082019050919050565b6000819050602082019050919050565b600081519050919050565b600081519050919050565b600081519050919050565b6000602082019050919050565b6000602082019050919050565b600082825260208201905092915050565b600082825260208201905092915050565b600081905092915050565b600082825260208201905092915050565b600082825260208201905092915050565b6000611b8c82611c74565b9150611b9783611c74565b925082611ba757611ba6611e1d565b5b828204905092915050565b6000611bbd82611c74565b9150611bc883611c74565b9250817fffffffffffffffffffffffffffffffffffffffffffffffffffffffffffffffff0483118215151615611c0157611c00611dee565b5b828202905092915050565b6000611c1782611c54565b9050919050565b6000611c2982611c54565b9050919050565b60008115159050919050565b6000819050919050565b600061ffff82169050919050565b600073ffffffffffffffffffffffffffffffffffffffff82169050919050565b6000819050919050565b600063ffffffff82169050919050565b600067ffffffffffffffff82169050919050565b82818337600083830152505050565b60005b83811015611ccf578082015181840152602081019050611cb4565b83811115611cde576000848401525b50505050565b60006002820490506001821680611cfc57607f821691505b60208210811415611d1057611d0f611e4c565b5b50919050565b611d1f82611ef2565b810181811067ffffffffffffffff82111715611d3e57611d3d611eaa565b5b80604052505050565b6000611d5282611c74565b91507fffffffffffffffffffffffffffffffffffffffffffffffffffffffffffffffff821415611d8557611d84611dee565b5b600182019050919050565b6000611d9b82611c7e565b915063ffffffff821415611db257611db1611dee565b5b600182019050919050565b6000611dc882611c74565b9150611dd383611c74565b925082611de357611de2611e1d565b5b828206905092915050565b7f4e487b7100000000000000000000000000000000000000000000000000000000600052601160045260246000fd5b7f4e487b7100000000000000000000000000000000000000000000000000000000600052601260045260246000fd5b7f4e487b7100000000000000000000000000000000000000000000000000000000600052602260045260246000fd5b7f4e487b7100000000000000000000000000000000000000000000000000000000600052603260045260246000fd5b7f4e487b7100000000000000000000000000000000000000000000000000000000600052604160045260246000fd5b600080fd5b600080fd5b600080fd5b600080fd5b600080fd5b6000601f19601f8301169050919050565b7f54686520616d6f756e742073656e7420697320746f6f206c6f772e0000000000600082015250565b50565b7f5573657220697320616c72656164792072656769737465726564000000000000600082015250565b7f4c6f74746572792068617320656e6465642e0000000000000000000000000000600082015250565b611f8a81611c0c565b8114611f9557600080fd5b50565b611fa181611c74565b8114611fac57600080fd5b5056fea2646970667358221220e92b3116051501d57a9c9dff2d1914f47f8632eaf3a2b7451f7b4b0d311b8fcc64736f6c63430008070033",
  "linkReferences": {},
  "deployedLinkReferences": {}
}