{
  "_format": "hh-sol-artifact-1",
  "contractName": "Loethery",
  "sourceName": "contracts/Loethery.sol",
  "abi": [
    {
      "inputs": [],
      "stateMutability": "nonpayable",
      "type": "constructor"
    },
    {
      "inputs": [],
      "name": "buyEntry",
      "outputs": [],
      "stateMutability": "payable",
      "type": "function"
    },
    {
      "inputs": [],
      "name": "finishLottery",
      "outputs": [],
      "stateMutability": "payable",
      "type": "function"
    },
    {
      "inputs": [],
      "name": "getActiveRound",
      "outputs": [
        {
          "components": [
            {
              "internalType": "address[]",
              "name": "winners",
              "type": "address[]"
            },
            {
              "internalType": "string",
              "name": "name",
              "type": "string"
            },
            {
              "internalType": "uint256",
              "name": "startDate",
              "type": "uint256"
            },
            {
              "internalType": "uint256",
              "name": "endDate",
              "type": "uint256"
            },
            {
              "internalType": "uint256",
              "name": "pot",
              "type": "uint256"
            }
          ],
          "internalType": "struct Loethery.Lottery",
          "name": "",
          "type": "tuple"
        }
      ],
      "stateMutability": "view",
      "type": "function"
    },
    {
      "inputs": [],
      "name": "getBalance",
      "outputs": [
        {
          "internalType": "uint256",
          "name": "",
          "type": "uint256"
        }
      ],
      "stateMutability": "view",
      "type": "function"
    },
    {
      "inputs": [],
      "name": "getHistory",
      "outputs": [
        {
          "components": [
            {
              "internalType": "address[]",
              "name": "winners",
              "type": "address[]"
            },
            {
              "internalType": "string",
              "name": "name",
              "type": "string"
            },
            {
              "internalType": "uint256",
              "name": "startDate",
              "type": "uint256"
            },
            {
              "internalType": "uint256",
              "name": "endDate",
              "type": "uint256"
            },
            {
              "internalType": "uint256",
              "name": "pot",
              "type": "uint256"
            }
          ],
          "internalType": "struct Loethery.Lottery[]",
          "name": "",
          "type": "tuple[]"
        }
      ],
      "stateMutability": "view",
      "type": "function"
    },
    {
      "inputs": [],
      "name": "getPlayers",
      "outputs": [
        {
          "internalType": "address payable[]",
          "name": "",
          "type": "address[]"
        }
      ],
      "stateMutability": "view",
      "type": "function"
    },
    {
      "inputs": [],
      "name": "getPrice",
      "outputs": [
        {
          "internalType": "uint256",
          "name": "",
          "type": "uint256"
        }
      ],
      "stateMutability": "view",
      "type": "function"
    },
    {
      "inputs": [
        {
          "internalType": "uint256",
          "name": "",
          "type": "uint256"
        }
      ],
      "name": "history",
      "outputs": [
        {
          "internalType": "string",
          "name": "name",
          "type": "string"
        },
        {
          "internalType": "uint256",
          "name": "startDate",
          "type": "uint256"
        },
        {
          "internalType": "uint256",
          "name": "endDate",
          "type": "uint256"
        },
        {
          "internalType": "uint256",
          "name": "pot",
          "type": "uint256"
        }
      ],
      "stateMutability": "view",
      "type": "function"
    },
    {
      "inputs": [],
      "name": "isOwner",
      "outputs": [
        {
          "internalType": "bool",
          "name": "",
          "type": "bool"
        }
      ],
      "stateMutability": "view",
      "type": "function"
    },
    {
      "inputs": [
        {
          "internalType": "address",
          "name": "_user",
          "type": "address"
        }
      ],
      "name": "isParticipating",
      "outputs": [
        {
          "internalType": "bool",
          "name": "",
          "type": "bool"
        }
      ],
      "stateMutability": "view",
      "type": "function"
    },
    {
      "inputs": [],
      "name": "lotteryId",
      "outputs": [
        {
          "internalType": "uint32",
          "name": "",
          "type": "uint32"
        }
      ],
      "stateMutability": "view",
      "type": "function"
    },
    {
      "inputs": [
        {
          "internalType": "uint256",
          "name": "",
          "type": "uint256"
        }
      ],
      "name": "players",
      "outputs": [
        {
          "internalType": "address payable",
          "name": "",
          "type": "address"
        }
      ],
      "stateMutability": "view",
      "type": "function"
    },
    {
      "inputs": [
        {
          "internalType": "uint256",
          "name": "_price",
          "type": "uint256"
        },
        {
          "internalType": "string",
          "name": "_name",
          "type": "string"
        },
        {
          "internalType": "uint256",
          "name": "_startDate",
          "type": "uint256"
        }
      ],
      "name": "startLottery",
      "outputs": [],
      "stateMutability": "nonpayable",
      "type": "function"
    },
    {
      "inputs": [],
      "name": "withdraw",
      "outputs": [],
      "stateMutability": "payable",
      "type": "function"
    }
  ],
  "bytecode": "0x608060405260008060186101000a81548160ff0219169083151502179055506040518060400160405280604660ff168152602001601960ff1681525060099060026200004d929190620000c3565b503480156200005b57600080fd5b50336000806101000a81548173ffffffffffffffffffffffffffffffffffffffff021916908373ffffffffffffffffffffffffffffffffffffffff16021790555060008060146101000a81548163ffffffff021916908363ffffffff16021790555062000139565b82805482825590600052602060002090810192821562000107579160200282015b8281111562000106578251829060ff16905591602001919060010190620000e4565b5b5090506200011691906200011a565b5090565b5b80821115620001355760008160009055506001016200011b565b5090565b61265380620001496000396000f3fe6080604052600436106100dd5760003560e01c80638f32d59b1161007f578063aa15efc811610059578063aa15efc814610240578063e580f47b1461026b578063f4caee8814610296578063f71d96cb146102d3576100dd565b80638f32d59b146101aa57806398d5fdca146101d5578063a7a38f0b14610200576100dd565b80632c906ba2116100bb5780632c906ba21461016157806335c13f301461016b5780633ccfd60b146101755780638b5b9ccc1461017f576100dd565b806306c5b7a0146100e257806312065fe01461010d5780631a1ec86e14610138575b600080fd5b3480156100ee57600080fd5b506100f7610310565b6040516101049190611e6e565b60405180910390f35b34801561011957600080fd5b506101226104b7565b60405161012f9190611e90565b60405180910390f35b34801561014457600080fd5b5061015f600480360381019061015a919061179f565b610518565b005b6101696106b6565b005b610173610aa1565b005b61017d610c01565b005b34801561018b57600080fd5b50610194610cf2565b6040516101a19190611cc3565b60405180910390f35b3480156101b657600080fd5b506101bf610d80565b6040516101cc9190611d07565b60405180910390f35b3480156101e157600080fd5b506101ea610de8565b6040516101f79190611e90565b60405180910390f35b34801561020c57600080fd5b5061022760048036038101906102229190611772565b610e40565b6040516102379493929190611d22565b60405180910390f35b34801561024c57600080fd5b50610255610f08565b6040516102629190611ce5565b60405180910390f35b34801561027757600080fd5b506102806110a5565b60405161028d9190611ed4565b60405180910390f35b3480156102a257600080fd5b506102bd60048036038101906102b89190611745565b6110bb565b6040516102ca9190611d07565b60405180910390f35b3480156102df57600080fd5b506102fa60048036038101906102f59190611772565b61116a565b6040516103079190611ca8565b60405180910390f35b6103186113e6565b600060189054906101000a900460ff16610367576040517f08c379a000000000000000000000000000000000000000000000000000000000815260040161035e90611e0e565b60405180910390fd5b60016040518060a0016040529081600082018054806020026020016040519081016040528092919081815260200182805480156103f957602002820191906000526020600020905b8160009054906101000a900473ffffffffffffffffffffffffffffffffffffffff1673ffffffffffffffffffffffffffffffffffffffff16815260200190600101908083116103af575b50505050508152602001600182018054610412906121e9565b80601f016020809104026020016040519081016040528092919081815260200182805461043e906121e9565b801561048b5780601f106104605761010080835404028352916020019161048b565b820191906000526020600020905b81548152906001019060200180831161046e57829003601f168201915b505050505081526020016002820154815260200160038201548152602001600482015481525050905090565b60008060009054906101000a900473ffffffffffffffffffffffffffffffffffffffff1673ffffffffffffffffffffffffffffffffffffffff163373ffffffffffffffffffffffffffffffffffffffff161461051257600080fd5b47905090565b60008054906101000a900473ffffffffffffffffffffffffffffffffffffffff1673ffffffffffffffffffffffffffffffffffffffff163373ffffffffffffffffffffffffffffffffffffffff161461057057600080fd5b600060189054906101000a900460ff16156105c0576040517f08c379a00000000000000000000000000000000000000000000000000000000081526004016105b790611dee565b60405180910390fd5b826008819055506040518060a00160405280600067ffffffffffffffff8111156105ed576105ec6123de565b5b60405190808252806020026020018201604052801561061b5781602001602082028036833780820191505090505b50815260200183815260200182815260200160008152602001600081525060016000820151816000019080519060200190610657929190611415565b50602082015181600101908051906020019061067492919061149f565b506040820151816002015560608201518160030155608082015181600401559050506001600060186101000a81548160ff021916908315150217905550505050565b60008054906101000a900473ffffffffffffffffffffffffffffffffffffffff1673ffffffffffffffffffffffffffffffffffffffff163373ffffffffffffffffffffffffffffffffffffffff161461070e57600080fd5b600060189054906101000a900460ff1661075d576040517f08c379a000000000000000000000000000000000000000000000000000000000815260040161075490611d8e565b60405180910390fd5b60008060186101000a81548160ff02191690831515021790555060006107816111a9565b905060005b600281101561096e5760006007805490508383815181106107aa576107a96123af565b5b60200260200101516107bc91906122c2565b90506001600001600782815481106107d7576107d66123af565b5b9060005260206000200160009054906101000a900473ffffffffffffffffffffffffffffffffffffffff169080600181540180825580915050600190039060005260206000200160009091909190916101000a81548173ffffffffffffffffffffffffffffffffffffffff021916908373ffffffffffffffffffffffffffffffffffffffff160217905550600060078281548110610878576108776123af565b5b9060005260206000200160009054906101000a900473ffffffffffffffffffffffffffffffffffffffff1673ffffffffffffffffffffffffffffffffffffffff166064600985815481106108cf576108ce6123af565b5b90600052602060002001546001600401546108ea91906120af565b6108f4919061207e565b60405161090090611c93565b60006040518083038185875af1925050503d806000811461093d576040519150601f19603f3d011682016040523d82523d6000602084013e610942565b606091505b505090508061095057600080fd5b6109598261127b565b505080806109669061224c565b915050610786565b504260016003018190555060066001908060018154018082558091505060019003906000526020600020906005020160009091909190915060008201816000019080546109bc929190611525565b5060018201816001019080546109d1906121e9565b6109dc929190611577565b5060028201548160020155600382015481600301556004820154816004015550506000601481819054906101000a900463ffffffff1680929190610a1f90612295565b91906101000a81548163ffffffff021916908363ffffffff16021790555050600067ffffffffffffffff811115610a5957610a586123de565b5b604051908082528060200260200182016040528015610a875781602001602082028036833780820191505090505b5060079080519060200190610a9d929190611604565b5050565b600060189054906101000a900460ff16610af0576040517f08c379a0000000000000000000000000000000000000000000000000000000008152600401610ae790611e4e565b60405180910390fd5b610af9336110bb565b15610b39576040517f08c379a0000000000000000000000000000000000000000000000000000000008152600401610b3090611e2e565b60405180910390fd5b600854341015610b7e576040517f08c379a0000000000000000000000000000000000000000000000000000000008152600401610b7590611d6e565b60405180910390fd5b60085460016004016000828254610b959190612028565b925050819055506007339080600181540180825580915050600190039060005260206000200160009091909190916101000a81548173ffffffffffffffffffffffffffffffffffffffff021916908373ffffffffffffffffffffffffffffffffffffffff160217905550565b60008054906101000a900473ffffffffffffffffffffffffffffffffffffffff1673ffffffffffffffffffffffffffffffffffffffff163373ffffffffffffffffffffffffffffffffffffffff1614610c5957600080fd5b600060189054906101000a900460ff1615610ca9576040517f08c379a0000000000000000000000000000000000000000000000000000000008152600401610ca090611dae565b60405180910390fd5b3373ffffffffffffffffffffffffffffffffffffffff166108fc479081150290604051600060405180830381858888f19350505050158015610cef573d6000803e3d6000fd5b50565b60606007805480602002602001604051908101604052809291908181526020018280548015610d7657602002820191906000526020600020905b8160009054906101000a900473ffffffffffffffffffffffffffffffffffffffff1673ffffffffffffffffffffffffffffffffffffffff1681526020019060010190808311610d2c575b5050505050905090565b60008060009054906101000a900473ffffffffffffffffffffffffffffffffffffffff1673ffffffffffffffffffffffffffffffffffffffff163373ffffffffffffffffffffffffffffffffffffffff161415610de05760019050610de5565b600090505b90565b60008060189054906101000a900460ff16610e38576040517f08c379a0000000000000000000000000000000000000000000000000000000008152600401610e2f90611e0e565b60405180910390fd5b600854905090565b60068181548110610e5057600080fd5b9060005260206000209060050201600091509050806001018054610e73906121e9565b80601f0160208091040260200160405190810160405280929190818152602001828054610e9f906121e9565b8015610eec5780601f10610ec157610100808354040283529160200191610eec565b820191906000526020600020905b815481529060010190602001808311610ecf57829003601f168201915b5050505050908060020154908060030154908060040154905084565b60606006805480602002602001604051908101604052809291908181526020016000905b8282101561109c57838290600052602060002090600502016040518060a001604052908160008201805480602002602001604051908101604052809291908181526020018280548015610fd457602002820191906000526020600020905b8160009054906101000a900473ffffffffffffffffffffffffffffffffffffffff1673ffffffffffffffffffffffffffffffffffffffff1681526020019060010190808311610f8a575b50505050508152602001600182018054610fed906121e9565b80601f0160208091040260200160405190810160405280929190818152602001828054611019906121e9565b80156110665780601f1061103b57610100808354040283529160200191611066565b820191906000526020600020905b81548152906001019060200180831161104957829003601f168201915b50505050508152602001600282015481526020016003820154815260200160048201548152505081526020019060010190610f2c565b50505050905090565b600060149054906101000a900463ffffffff1681565b600080600090505b60078054905081101561115f578273ffffffffffffffffffffffffffffffffffffffff16600782815481106110fb576110fa6123af565b5b9060005260206000200160009054906101000a900473ffffffffffffffffffffffffffffffffffffffff1673ffffffffffffffffffffffffffffffffffffffff16141561114c576001915050611165565b80806111579061224c565b9150506110c3565b50600090505b919050565b6007818154811061117a57600080fd5b906000526020600020016000915054906101000a900473ffffffffffffffffffffffffffffffffffffffff1681565b606060006001436111ba9190612109565b4060001c9050600267ffffffffffffffff8111156111db576111da6123de565b5b6040519080825280602002602001820160405280156112095781602001602082028036833780820191505090505b50915060005b600281101561127657818160405160200161122b929190611eab565b6040516020818303038152906040528051906020012060001c838281518110611257576112566123af565b5b602002602001018181525050808061126e9061224c565b91505061120f565b505090565b60078054905081106112c2576040517f08c379a00000000000000000000000000000000000000000000000000000000081526004016112b990611dce565b60405180910390fd5b60008190505b60016007805490506112da9190612109565b81101561139b5760076001826112f09190612028565b81548110611301576113006123af565b5b9060005260206000200160009054906101000a900473ffffffffffffffffffffffffffffffffffffffff16600782815481106113405761133f6123af565b5b9060005260206000200160006101000a81548173ffffffffffffffffffffffffffffffffffffffff021916908373ffffffffffffffffffffffffffffffffffffffff16021790555080806113939061224c565b9150506112c8565b5060078054806113ae576113ad612380565b5b6001900381819060005260206000200160006101000a81549073ffffffffffffffffffffffffffffffffffffffff0219169055905550565b6040518060a0016040528060608152602001606081526020016000815260200160008152602001600081525090565b82805482825590600052602060002090810192821561148e579160200282015b8281111561148d5782518260006101000a81548173ffffffffffffffffffffffffffffffffffffffff021916908373ffffffffffffffffffffffffffffffffffffffff16021790555091602001919060010190611435565b5b50905061149b919061168e565b5090565b8280546114ab906121e9565b90600052602060002090601f0160209004810192826114cd5760008555611514565b82601f106114e657805160ff1916838001178555611514565b82800160010185558215611514579182015b828111156115135782518255916020019190600101906114f8565b5b509050611521919061168e565b5090565b8280548282559060005260206000209081019282156115665760005260206000209182015b8281111561156557825482559160010191906001019061154a565b5b509050611573919061168e565b5090565b828054611583906121e9565b90600052602060002090601f0160209004810192826115a557600085556115f3565b82601f106115b657805485556115f3565b828001600101855582156115f357600052602060002091601f016020900482015b828111156115f25782548255916001019190600101906115d7565b5b509050611600919061168e565b5090565b82805482825590600052602060002090810192821561167d579160200282015b8281111561167c5782518260006101000a81548173ffffffffffffffffffffffffffffffffffffffff021916908373ffffffffffffffffffffffffffffffffffffffff16021790555091602001919060010190611624565b5b50905061168a919061168e565b5090565b5b808211156116a757600081600090555060010161168f565b5090565b60006116be6116b984611f14565b611eef565b9050828152602081018484840111156116da576116d9612412565b5b6116e58482856121a7565b509392505050565b6000813590506116fc816125ef565b92915050565b600082601f8301126117175761171661240d565b5b81356117278482602086016116ab565b91505092915050565b60008135905061173f81612606565b92915050565b60006020828403121561175b5761175a61241c565b5b6000611769848285016116ed565b91505092915050565b6000602082840312156117885761178761241c565b5b600061179684828501611730565b91505092915050565b6000806000606084860312156117b8576117b761241c565b5b60006117c686828701611730565b935050602084013567ffffffffffffffff8111156117e7576117e6612417565b5b6117f386828701611702565b925050604061180486828701611730565b9150509250925092565b600061181a8383611852565b60208301905092915050565b60006118328383611870565b60208301905092915050565b600061184a8383611b6c565b905092915050565b61185b8161214f565b82525050565b61186a8161214f565b82525050565b6118798161213d565b82525050565b600061188a82611f75565b6118948185611fc8565b935061189f83611f45565b8060005b838110156118d05781516118b78882611826565b97506118c283611fa1565b9250506001810190506118a3565b5085935050505092915050565b60006118e882611f80565b6118f28185611fd9565b93506118fd83611f55565b8060005b8381101561192e578151611915888261180e565b975061192083611fae565b925050600181019050611901565b5085935050505092915050565b600061194682611f8b565b6119508185611fea565b93508360208202850161196285611f65565b8060005b8581101561199e578484038952815161197f858261183e565b945061198a83611fbb565b925060208a01995050600181019050611966565b50829750879550505050505092915050565b6119b981612161565b82525050565b60006119ca82611f96565b6119d48185612006565b93506119e48185602086016121b6565b6119ed81612421565b840191505092915050565b6000611a0382611f96565b611a0d8185612017565b9350611a1d8185602086016121b6565b611a2681612421565b840191505092915050565b6000611a3e601b83612017565b9150611a4982612432565b602082019050919050565b6000611a61601083612017565b9150611a6c8261245b565b602082019050919050565b6000611a84604283612017565b9150611a8f82612484565b606082019050919050565b6000611aa7602083612017565b9150611ab2826124f9565b602082019050919050565b6000611aca602183612017565b9150611ad582612522565b604082019050919050565b6000611aed601a83612017565b9150611af882612571565b602082019050919050565b6000611b10600083611ffb565b9150611b1b8261259a565b600082019050919050565b6000611b33601a83612017565b9150611b3e8261259d565b602082019050919050565b6000611b56601283612017565b9150611b61826125c6565b602082019050919050565b600060a0830160008301518482036000860152611b89828261187f565b91505060208301518482036020860152611ba382826119bf565b9150506040830151611bb86040860182611c66565b506060830151611bcb6060860182611c66565b506080830151611bde6080860182611c66565b508091505092915050565b600060a0830160008301518482036000860152611c06828261187f565b91505060208301518482036020860152611c2082826119bf565b9150506040830151611c356040860182611c66565b506060830151611c486060860182611c66565b506080830151611c5b6080860182611c66565b508091505092915050565b611c6f8161218d565b82525050565b611c7e8161218d565b82525050565b611c8d81612197565b82525050565b6000611c9e82611b03565b9150819050919050565b6000602082019050611cbd6000830184611861565b92915050565b60006020820190508181036000830152611cdd81846118dd565b905092915050565b60006020820190508181036000830152611cff818461193b565b905092915050565b6000602082019050611d1c60008301846119b0565b92915050565b60006080820190508181036000830152611d3c81876119f8565b9050611d4b6020830186611c75565b611d586040830185611c75565b611d656060830184611c75565b95945050505050565b60006020820190508181036000830152611d8781611a31565b9050919050565b60006020820190508181036000830152611da781611a54565b9050919050565b60006020820190508181036000830152611dc781611a77565b9050919050565b60006020820190508181036000830152611de781611a9a565b9050919050565b60006020820190508181036000830152611e0781611abd565b9050919050565b60006020820190508181036000830152611e2781611ae0565b9050919050565b60006020820190508181036000830152611e4781611b26565b9050919050565b60006020820190508181036000830152611e6781611b49565b9050919050565b60006020820190508181036000830152611e888184611be9565b905092915050565b6000602082019050611ea56000830184611c75565b92915050565b6000604082019050611ec06000830185611c75565b611ecd6020830184611c75565b9392505050565b6000602082019050611ee96000830184611c84565b92915050565b6000611ef9611f0a565b9050611f05828261221b565b919050565b6000604051905090565b600067ffffffffffffffff821115611f2f57611f2e6123de565b5b611f3882612421565b9050602081019050919050565b6000819050602082019050919050565b6000819050602082019050919050565b6000819050602082019050919050565b600081519050919050565b600081519050919050565b600081519050919050565b600081519050919050565b6000602082019050919050565b6000602082019050919050565b6000602082019050919050565b600082825260208201905092915050565b600082825260208201905092915050565b600082825260208201905092915050565b600081905092915050565b600082825260208201905092915050565b600082825260208201905092915050565b60006120338261218d565b915061203e8361218d565b9250827fffffffffffffffffffffffffffffffffffffffffffffffffffffffffffffffff03821115612073576120726122f3565b5b828201905092915050565b60006120898261218d565b91506120948361218d565b9250826120a4576120a3612322565b5b828204905092915050565b60006120ba8261218d565b91506120c58361218d565b9250817fffffffffffffffffffffffffffffffffffffffffffffffffffffffffffffffff04831182151516156120fe576120fd6122f3565b5b828202905092915050565b60006121148261218d565b915061211f8361218d565b925082821015612132576121316122f3565b5b828203905092915050565b60006121488261216d565b9050919050565b600061215a8261216d565b9050919050565b60008115159050919050565b600073ffffffffffffffffffffffffffffffffffffffff82169050919050565b6000819050919050565b600063ffffffff82169050919050565b82818337600083830152505050565b60005b838110156121d45780820151818401526020810190506121b9565b838111156121e3576000848401525b50505050565b6000600282049050600182168061220157607f821691505b6020821081141561221557612214612351565b5b50919050565b61222482612421565b810181811067ffffffffffffffff82111715612243576122426123de565b5b80604052505050565b60006122578261218d565b91507fffffffffffffffffffffffffffffffffffffffffffffffffffffffffffffffff82141561228a576122896122f3565b5b600182019050919050565b60006122a082612197565b915063ffffffff8214156122b7576122b66122f3565b5b600182019050919050565b60006122cd8261218d565b91506122d88361218d565b9250826122e8576122e7612322565b5b828206905092915050565b7f4e487b7100000000000000000000000000000000000000000000000000000000600052601160045260246000fd5b7f4e487b7100000000000000000000000000000000000000000000000000000000600052601260045260246000fd5b7f4e487b7100000000000000000000000000000000000000000000000000000000600052602260045260246000fd5b7f4e487b7100000000000000000000000000000000000000000000000000000000600052603160045260246000fd5b7f4e487b7100000000000000000000000000000000000000000000000000000000600052603260045260246000fd5b7f4e487b7100000000000000000000000000000000000000000000000000000000600052604160045260246000fd5b600080fd5b600080fd5b600080fd5b600080fd5b6000601f19601f8301169050919050565b7f54686520616d6f756e742073656e7420697320746f6f206c6f772e0000000000600082015250565b7f4e6f20726f756e64206163746976652e00000000000000000000000000000000600082015250565b7f596f752063616e27742074616b65206d6f6e6579206f7574206f66207468652060008201527f706f742e205761697420666f722074686520726f756e6420746f2066696e697360208201527f682e000000000000000000000000000000000000000000000000000000000000604082015250565b7f496e6465782070726f7669646564206973206f7574206f6620626f756e64732e600082015250565b7f416e6f7468657220726f756e6420697320616c72656164792072756e6e696e6760008201527f2e00000000000000000000000000000000000000000000000000000000000000602082015250565b7f4e6f20726f756e642063757272656e746c79206163746976652e000000000000600082015250565b50565b7f5573657220697320616c72656164792072656769737465726564000000000000600082015250565b7f4c6f74746572792068617320656e6465642e0000000000000000000000000000600082015250565b6125f88161213d565b811461260357600080fd5b50565b61260f8161218d565b811461261a57600080fd5b5056fea26469706673582212200960324b44d2213594f67438f56a45c5c4bf6c9ad72c4d829fcc82665178b9d664736f6c63430008070033",
  "linkReferences": {},
  "deployedLinkReferences": {}
}