{
  "_format": "hh-sol-artifact-1",
  "contractName": "Loethery",
  "sourceName": "contracts/Loethery.sol",
  "abi": [
    {
      "inputs": [
        {
          "internalType": "uint64",
          "name": "subscriptionId",
          "type": "uint64"
        }
      ],
      "stateMutability": "nonpayable",
      "type": "constructor"
    },
    {
      "inputs": [
        {
          "internalType": "address",
          "name": "have",
          "type": "address"
        },
        {
          "internalType": "address",
          "name": "want",
          "type": "address"
        }
      ],
      "name": "OnlyCoordinatorCanFulfill",
      "type": "error"
    },
    {
      "inputs": [],
      "name": "buyEntry",
      "outputs": [],
      "stateMutability": "payable",
      "type": "function"
    },
    {
      "inputs": [
        {
          "internalType": "uint256",
          "name": "_lotteryDate",
          "type": "uint256"
        }
      ],
      "name": "dateSet",
      "outputs": [],
      "stateMutability": "nonpayable",
      "type": "function"
    },
    {
      "inputs": [],
      "name": "finishLottery",
      "outputs": [],
      "stateMutability": "payable",
      "type": "function"
    },
    {
      "inputs": [],
      "name": "getPlayers",
      "outputs": [
        {
          "internalType": "address payable[]",
          "name": "",
          "type": "address[]"
        }
      ],
      "stateMutability": "view",
      "type": "function"
    },
    {
      "inputs": [],
      "name": "getPotTotal",
      "outputs": [
        {
          "internalType": "uint256",
          "name": "",
          "type": "uint256"
        }
      ],
      "stateMutability": "view",
      "type": "function"
    },
    {
      "inputs": [
        {
          "internalType": "uint256",
          "name": "",
          "type": "uint256"
        }
      ],
      "name": "lotteryHistory",
      "outputs": [
        {
          "internalType": "string",
          "name": "lotteryName",
          "type": "string"
        },
        {
          "internalType": "uint256",
          "name": "lotteryDate",
          "type": "uint256"
        }
      ],
      "stateMutability": "view",
      "type": "function"
    },
    {
      "inputs": [],
      "name": "lotteryId",
      "outputs": [
        {
          "internalType": "uint32",
          "name": "",
          "type": "uint32"
        }
      ],
      "stateMutability": "view",
      "type": "function"
    },
    {
      "inputs": [
        {
          "internalType": "string",
          "name": "_name",
          "type": "string"
        }
      ],
      "name": "nameSet",
      "outputs": [],
      "stateMutability": "nonpayable",
      "type": "function"
    },
    {
      "inputs": [
        {
          "internalType": "uint256",
          "name": "",
          "type": "uint256"
        }
      ],
      "name": "players",
      "outputs": [
        {
          "internalType": "address payable",
          "name": "",
          "type": "address"
        }
      ],
      "stateMutability": "view",
      "type": "function"
    },
    {
      "inputs": [
        {
          "internalType": "uint256",
          "name": "_cost",
          "type": "uint256"
        }
      ],
      "name": "priceSet",
      "outputs": [],
      "stateMutability": "nonpayable",
      "type": "function"
    },
    {
      "inputs": [
        {
          "internalType": "uint256",
          "name": "requestId",
          "type": "uint256"
        },
        {
          "internalType": "uint256[]",
          "name": "randomWords",
          "type": "uint256[]"
        }
      ],
      "name": "rawFulfillRandomWords",
      "outputs": [],
      "stateMutability": "nonpayable",
      "type": "function"
    },
    {
      "inputs": [],
      "name": "requestRandomWords",
      "outputs": [],
      "stateMutability": "nonpayable",
      "type": "function"
    },
    {
      "inputs": [
        {
          "internalType": "uint256",
          "name": "id",
          "type": "uint256"
        }
      ],
      "name": "retrieveLotteryHistory",
      "outputs": [
        {
          "components": [
            {
              "internalType": "address[]",
              "name": "winners",
              "type": "address[]"
            },
            {
              "internalType": "string",
              "name": "lotteryName",
              "type": "string"
            },
            {
              "internalType": "uint256",
              "name": "lotteryDate",
              "type": "uint256"
            }
          ],
          "internalType": "struct Loethery.Lottery",
          "name": "",
          "type": "tuple"
        }
      ],
      "stateMutability": "view",
      "type": "function"
    },
    {
      "inputs": [
        {
          "internalType": "uint256",
          "name": "",
          "type": "uint256"
        }
      ],
      "name": "s_randomWords",
      "outputs": [
        {
          "internalType": "uint256",
          "name": "",
          "type": "uint256"
        }
      ],
      "stateMutability": "view",
      "type": "function"
    },
    {
      "inputs": [],
      "name": "s_requestId",
      "outputs": [
        {
          "internalType": "uint256",
          "name": "",
          "type": "uint256"
        }
      ],
      "stateMutability": "view",
      "type": "function"
    },
    {
      "inputs": [
        {
          "internalType": "uint256",
          "name": "_cost",
          "type": "uint256"
        },
        {
          "internalType": "string",
          "name": "_lotteryName",
          "type": "string"
        },
        {
          "internalType": "uint256",
          "name": "_lotteryDate",
          "type": "uint256"
        }
      ],
      "name": "startLottery",
      "outputs": [],
      "stateMutability": "nonpayable",
      "type": "function"
    },
    {
      "inputs": [],
      "name": "withdraw",
      "outputs": [],
      "stateMutability": "payable",
      "type": "function"
    }
  ],
  "bytecode": "0x60a0604052736168499c0cffcacd319c818142124b7a15e857ab600260006101000a81548173ffffffffffffffffffffffffffffffffffffffff021916908373ffffffffffffffffffffffffffffffffffffffff1602179055507301be23585060835e02b77ef475b0cc51aa1e0709600360006101000a81548173ffffffffffffffffffffffffffffffffffffffff021916908373ffffffffffffffffffffffffffffffffffffffff1602179055507fd89b2bf150e3b9e13446986e571fb9cab24b13cea0a43ea20a6049a85cc807cc60001b600455620186a0600560006101000a81548163ffffffff021916908363ffffffff1602179055506003600560046101000a81548161ffff021916908361ffff1602179055506002600560066101000a81548163ffffffff021916908363ffffffff160217905550662386f26fc10000600b556040518060400160405280604660ff168152602001601960ff16815250600c9060026200017392919062000375565b506001600d60006101000a81548160ff0219169083151502179055503480156200019c57600080fd5b5060405162002251380380620022518339818101604052810190620001c2919062000402565b600260009054906101000a900473ffffffffffffffffffffffffffffffffffffffff168073ffffffffffffffffffffffffffffffffffffffff1660808173ffffffffffffffffffffffffffffffffffffffff1660601b8152505050600260009054906101000a900473ffffffffffffffffffffffffffffffffffffffff166000806101000a81548173ffffffffffffffffffffffffffffffffffffffff021916908373ffffffffffffffffffffffffffffffffffffffff160217905550600360009054906101000a900473ffffffffffffffffffffffffffffffffffffffff16600160006101000a81548173ffffffffffffffffffffffffffffffffffffffff021916908373ffffffffffffffffffffffffffffffffffffffff16021790555033600860006101000a81548173ffffffffffffffffffffffffffffffffffffffff021916908373ffffffffffffffffffffffffffffffffffffffff16021790555080600160146101000a81548167ffffffffffffffff021916908367ffffffffffffffff1602179055506000600860146101000a81548163ffffffff021916908363ffffffff1602179055505062000467565b828054828255906000526020600020908101928215620003b9579160200282015b82811115620003b8578251829060ff1690559160200191906001019062000396565b5b509050620003c89190620003cc565b5090565b5b80821115620003e7576000816000905550600101620003cd565b5090565b600081519050620003fc816200044d565b92915050565b6000602082840312156200041b576200041a62000448565b5b60006200042b84828501620003eb565b91505092915050565b600067ffffffffffffffff82169050919050565b600080fd5b620004588162000434565b81146200046457600080fd5b50565b60805160601c611dc46200048d6000396000818161043d01526104910152611dc46000f3fe6080604052600436106100fe5760003560e01c8063c659f94611610095578063e89e106a11610064578063e89e106a1461029b578063edeefa31146102c6578063f6eaffc8146102ef578063f71d96cb1461032c578063f7a57a2414610369576100fe565b8063c659f94614610205578063cc77857f14610230578063e0c8628914610259578063e580f47b14610270576100fe565b80633ccfd60b116100d15780633ccfd60b146101695780636d6fe2301461017357806382231ec6146101b15780638b5b9ccc146101da576100fe565b80631a1ec86e146101035780631fe543e31461012c5780632c906ba21461015557806335c13f301461015f575b600080fd5b34801561010f57600080fd5b5061012a600480360381019061012591906113c7565b6103a6565b005b34801561013857600080fd5b50610153600480360381019061014e919061136b565b61043b565b005b61015d6104fb565b005b61016761081e565b005b610171610918565b005b34801561017f57600080fd5b5061019a60048036038101906101959190611311565b6109bb565b6040516101a89291906117b8565b60405180910390f35b3480156101bd57600080fd5b506101d860048036038101906101d39190611311565b610a67565b005b3480156101e657600080fd5b506101ef610add565b6040516101fc9190611743565b60405180910390f35b34801561021157600080fd5b5061021a610b6b565b604051610227919061184a565b60405180910390f35b34801561023c57600080fd5b5061025760048036038101906102529190611311565b610b73565b005b34801561026557600080fd5b5061026e610c03565b005b34801561027c57600080fd5b50610285610d64565b6040516102929190611865565b60405180910390f35b3480156102a757600080fd5b506102b0610d7a565b6040516102bd919061184a565b60405180910390f35b3480156102d257600080fd5b506102ed60048036038101906102e891906112c8565b610d80565b005b3480156102fb57600080fd5b5061031660048036038101906103119190611311565b610e20565b604051610323919061184a565b60405180910390f35b34801561033857600080fd5b50610353600480360381019061034e9190611311565b610e44565b60405161036091906116ff565b60405180910390f35b34801561037557600080fd5b50610390600480360381019061038b9190611311565b610e83565b60405161039d9190611828565b60405180910390f35b600860009054906101000a900473ffffffffffffffffffffffffffffffffffffffff1673ffffffffffffffffffffffffffffffffffffffff163373ffffffffffffffffffffffffffffffffffffffff161461040057600080fd5b61040981610b73565b61041283610a67565b61041b82610d80565b6000600d60006101000a81548160ff021916908315150217905550505050565b7f000000000000000000000000000000000000000000000000000000000000000073ffffffffffffffffffffffffffffffffffffffff163373ffffffffffffffffffffffffffffffffffffffff16146104ed57337f00000000000000000000000000000000000000000000000000000000000000006040517f1cf993f40000000000000000000000000000000000000000000000000000000081526004016104e492919061171a565b60405180910390fd5b6104f78282610fda565b5050565b600860009054906101000a900473ffffffffffffffffffffffffffffffffffffffff1673ffffffffffffffffffffffffffffffffffffffff163373ffffffffffffffffffffffffffffffffffffffff161461055557600080fd5b6001600d60006101000a81548160ff02191690831515021790555060005b600281101561077a576000600a805490506006838154811061059857610597611c9a565b5b90600052602060002001546105ad9190611bdc565b905060096000600860149054906101000a900463ffffffff1663ffffffff168152602001908152602001600020600001600a82815481106105f1576105f0611c9a565b5b9060005260206000200160009054906101000a900473ffffffffffffffffffffffffffffffffffffffff169080600181540180825580915050600190039060005260206000200160009091909190916101000a81548173ffffffffffffffffffffffffffffffffffffffff021916908373ffffffffffffffffffffffffffffffffffffffff1602179055506000600a828154811061069257610691611c9a565b5b9060005260206000200160009054906101000a900473ffffffffffffffffffffffffffffffffffffffff1673ffffffffffffffffffffffffffffffffffffffff166064600c85815481106106e9576106e8611c9a565b5b9060005260206000200154476106ff91906119dd565b61070991906119ac565b604051610715906116ea565b60006040518083038185875af1925050503d8060008114610752576040519150601f19603f3d011682016040523d82523d6000602084013e610757565b606091505b505090508061076557600080fd5b5050808061077290611b66565b915050610573565b506008601481819054906101000a900463ffffffff168092919061079d90611baf565b91906101000a81548163ffffffff021916908363ffffffff16021790555050600067ffffffffffffffff8111156107d7576107d6611cc9565b5b6040519080825280602002602001820160405280156108055781602001602082028036833780820191505090505b50600a908051906020019061081b929190610ff5565b50565b600d60009054906101000a900460ff161561086e576040517f08c379a000000000000000000000000000000000000000000000000000000000815260040161086590611808565b60405180910390fd5b600b543410156108b3576040517f08c379a00000000000000000000000000000000000000000000000000000000081526004016108aa906117e8565b60405180910390fd5b600a339080600181540180825580915050600190039060005260206000200160009091909190916101000a81548173ffffffffffffffffffffffffffffffffffffffff021916908373ffffffffffffffffffffffffffffffffffffffff160217905550565b600860009054906101000a900473ffffffffffffffffffffffffffffffffffffffff1673ffffffffffffffffffffffffffffffffffffffff163373ffffffffffffffffffffffffffffffffffffffff161461097257600080fd5b3373ffffffffffffffffffffffffffffffffffffffff166108fc479081150290604051600060405180830381858888f193505050501580156109b8573d6000803e3d6000fd5b50565b60096020528060005260406000206000915090508060010180546109de90611b03565b80601f0160208091040260200160405190810160405280929190818152602001828054610a0a90611b03565b8015610a575780601f10610a2c57610100808354040283529160200191610a57565b820191906000526020600020905b815481529060010190602001808311610a3a57829003601f168201915b5050505050908060020154905082565b600860009054906101000a900473ffffffffffffffffffffffffffffffffffffffff1673ffffffffffffffffffffffffffffffffffffffff163373ffffffffffffffffffffffffffffffffffffffff1614610ac157600080fd5b662386f26fc1000081610ad491906119dd565b600b8190555050565b6060600a805480602002602001604051908101604052809291908181526020018280548015610b6157602002820191906000526020600020905b8160009054906101000a900473ffffffffffffffffffffffffffffffffffffffff1673ffffffffffffffffffffffffffffffffffffffff1681526020019060010190808311610b17575b5050505050905090565b600047905090565b600860009054906101000a900473ffffffffffffffffffffffffffffffffffffffff1673ffffffffffffffffffffffffffffffffffffffff163373ffffffffffffffffffffffffffffffffffffffff1614610bcd57600080fd5b8060096000600860149054906101000a900463ffffffff1663ffffffff1681526020019081526020016000206002018190555050565b600860009054906101000a900473ffffffffffffffffffffffffffffffffffffffff1673ffffffffffffffffffffffffffffffffffffffff163373ffffffffffffffffffffffffffffffffffffffff1614610c5d57600080fd5b60008054906101000a900473ffffffffffffffffffffffffffffffffffffffff1673ffffffffffffffffffffffffffffffffffffffff16635d3b1d30600454600160149054906101000a900467ffffffffffffffff16600560049054906101000a900461ffff16600560009054906101000a900463ffffffff16600560069054906101000a900463ffffffff166040518663ffffffff1660e01b8152600401610d0a959493929190611765565b602060405180830381600087803b158015610d2457600080fd5b505af1158015610d38573d6000803e3d6000fd5b505050506040513d601f19601f82011682018060405250810190610d5c919061133e565b600781905550565b600860149054906101000a900463ffffffff1681565b60075481565b600860009054906101000a900473ffffffffffffffffffffffffffffffffffffffff1673ffffffffffffffffffffffffffffffffffffffff163373ffffffffffffffffffffffffffffffffffffffff1614610dda57600080fd5b8060096000600860149054906101000a900463ffffffff1663ffffffff1681526020019081526020016000206001019080519060200190610e1c92919061107f565b5050565b60068181548110610e3057600080fd5b906000526020600020016000915090505481565b600a8181548110610e5457600080fd5b906000526020600020016000915054906101000a900473ffffffffffffffffffffffffffffffffffffffff1681565b610e8b611105565b6009600083815260200190815260200160002060405180606001604052908160008201805480602002602001604051908101604052809291908181526020018280548015610f2e57602002820191906000526020600020905b8160009054906101000a900473ffffffffffffffffffffffffffffffffffffffff1673ffffffffffffffffffffffffffffffffffffffff1681526020019060010190808311610ee4575b50505050508152602001600182018054610f4790611b03565b80601f0160208091040260200160405190810160405280929190818152602001828054610f7390611b03565b8015610fc05780601f10610f9557610100808354040283529160200191610fc0565b820191906000526020600020905b815481529060010190602001808311610fa357829003601f168201915b505050505081526020016002820154815250509050919050565b8060069080519060200190610ff0929190611126565b505050565b82805482825590600052602060002090810192821561106e579160200282015b8281111561106d5782518260006101000a81548173ffffffffffffffffffffffffffffffffffffffff021916908373ffffffffffffffffffffffffffffffffffffffff16021790555091602001919060010190611015565b5b50905061107b9190611173565b5090565b82805461108b90611b03565b90600052602060002090601f0160209004810192826110ad57600085556110f4565b82601f106110c657805160ff19168380011785556110f4565b828001600101855582156110f4579182015b828111156110f35782518255916020019190600101906110d8565b5b5090506111019190611173565b5090565b60405180606001604052806060815260200160608152602001600081525090565b828054828255906000526020600020908101928215611162579160200282015b82811115611161578251825591602001919060010190611146565b5b50905061116f9190611173565b5090565b5b8082111561118c576000816000905550600101611174565b5090565b60006111a361119e846118a5565b611880565b905080838252602082019050828560208602820111156111c6576111c5611cfd565b5b60005b858110156111f657816111dc888261129e565b8452602084019350602083019250506001810190506111c9565b5050509392505050565b600061121361120e846118d1565b611880565b90508281526020810184848401111561122f5761122e611d02565b5b61123a848285611ac1565b509392505050565b600082601f83011261125757611256611cf8565b5b8135611267848260208601611190565b91505092915050565b600082601f83011261128557611284611cf8565b5b8135611295848260208601611200565b91505092915050565b6000813590506112ad81611d77565b92915050565b6000815190506112c281611d77565b92915050565b6000602082840312156112de576112dd611d0c565b5b600082013567ffffffffffffffff8111156112fc576112fb611d07565b5b61130884828501611270565b91505092915050565b60006020828403121561132757611326611d0c565b5b60006113358482850161129e565b91505092915050565b60006020828403121561135457611353611d0c565b5b6000611362848285016112b3565b91505092915050565b6000806040838503121561138257611381611d0c565b5b60006113908582860161129e565b925050602083013567ffffffffffffffff8111156113b1576113b0611d07565b5b6113bd85828601611242565b9150509250929050565b6000806000606084860312156113e0576113df611d0c565b5b60006113ee8682870161129e565b935050602084013567ffffffffffffffff81111561140f5761140e611d07565b5b61141b86828701611270565b925050604061142c8682870161129e565b9150509250925092565b60006114428383611466565b60208301905092915050565b600061145a8383611484565b60208301905092915050565b61146f81611a49565b82525050565b61147e81611a49565b82525050565b61148d81611a37565b82525050565b61149c81611a37565b82525050565b60006114ad82611922565b6114b7818561195d565b93506114c283611902565b8060005b838110156114f35781516114da888261144e565b97506114e583611943565b9250506001810190506114c6565b5085935050505092915050565b600061150b8261192d565b611515818561196e565b935061152083611912565b8060005b838110156115515781516115388882611436565b975061154383611950565b925050600181019050611524565b5085935050505092915050565b61156781611a5b565b82525050565b600061157882611938565b611582818561198a565b9350611592818560208601611ad0565b61159b81611d11565b840191505092915050565b60006115b182611938565b6115bb818561199b565b93506115cb818560208601611ad0565b6115d481611d11565b840191505092915050565b60006115ec601b8361199b565b91506115f782611d22565b602082019050919050565b600061160f60008361197f565b915061161a82611d4b565b600082019050919050565b600061163260128361199b565b915061163d82611d4e565b602082019050919050565b6000606083016000830151848203600086015261166582826114a2565b9150506020830151848203602086015261167f828261156d565b915050604083015161169460408601826116ae565b508091505092915050565b6116a881611a65565b82525050565b6116b781611a93565b82525050565b6116c681611a93565b82525050565b6116d581611a9d565b82525050565b6116e481611aad565b82525050565b60006116f582611602565b9150819050919050565b60006020820190506117146000830184611475565b92915050565b600060408201905061172f6000830185611493565b61173c6020830184611493565b9392505050565b6000602082019050818103600083015261175d8184611500565b905092915050565b600060a08201905061177a600083018861155e565b61178760208301876116db565b611794604083018661169f565b6117a160608301856116cc565b6117ae60808301846116cc565b9695505050505050565b600060408201905081810360008301526117d281856115a6565b90506117e160208301846116bd565b9392505050565b60006020820190508181036000830152611801816115df565b9050919050565b6000602082019050818103600083015261182181611625565b9050919050565b600060208201905081810360008301526118428184611648565b905092915050565b600060208201905061185f60008301846116bd565b92915050565b600060208201905061187a60008301846116cc565b92915050565b600061188a61189b565b90506118968282611b35565b919050565b6000604051905090565b600067ffffffffffffffff8211156118c0576118bf611cc9565b5b602082029050602081019050919050565b600067ffffffffffffffff8211156118ec576118eb611cc9565b5b6118f582611d11565b9050602081019050919050565b6000819050602082019050919050565b6000819050602082019050919050565b600081519050919050565b600081519050919050565b600081519050919050565b6000602082019050919050565b6000602082019050919050565b600082825260208201905092915050565b600082825260208201905092915050565b600081905092915050565b600082825260208201905092915050565b600082825260208201905092915050565b60006119b782611a93565b91506119c283611a93565b9250826119d2576119d1611c3c565b5b828204905092915050565b60006119e882611a93565b91506119f383611a93565b9250817fffffffffffffffffffffffffffffffffffffffffffffffffffffffffffffffff0483118215151615611a2c57611a2b611c0d565b5b828202905092915050565b6000611a4282611a73565b9050919050565b6000611a5482611a73565b9050919050565b6000819050919050565b600061ffff82169050919050565b600073ffffffffffffffffffffffffffffffffffffffff82169050919050565b6000819050919050565b600063ffffffff82169050919050565b600067ffffffffffffffff82169050919050565b82818337600083830152505050565b60005b83811015611aee578082015181840152602081019050611ad3565b83811115611afd576000848401525b50505050565b60006002820490506001821680611b1b57607f821691505b60208210811415611b2f57611b2e611c6b565b5b50919050565b611b3e82611d11565b810181811067ffffffffffffffff82111715611b5d57611b5c611cc9565b5b80604052505050565b6000611b7182611a93565b91507fffffffffffffffffffffffffffffffffffffffffffffffffffffffffffffffff821415611ba457611ba3611c0d565b5b600182019050919050565b6000611bba82611a9d565b915063ffffffff821415611bd157611bd0611c0d565b5b600182019050919050565b6000611be782611a93565b9150611bf283611a93565b925082611c0257611c01611c3c565b5b828206905092915050565b7f4e487b7100000000000000000000000000000000000000000000000000000000600052601160045260246000fd5b7f4e487b7100000000000000000000000000000000000000000000000000000000600052601260045260246000fd5b7f4e487b7100000000000000000000000000000000000000000000000000000000600052602260045260246000fd5b7f4e487b7100000000000000000000000000000000000000000000000000000000600052603260045260246000fd5b7f4e487b7100000000000000000000000000000000000000000000000000000000600052604160045260246000fd5b600080fd5b600080fd5b600080fd5b600080fd5b600080fd5b6000601f19601f8301169050919050565b7f54686520616d6f756e742073656e7420697320746f6f206c6f772e0000000000600082015250565b50565b7f4c6f74746572792068617320656e6465642e0000000000000000000000000000600082015250565b611d8081611a93565b8114611d8b57600080fd5b5056fea2646970667358221220aafaf1f45fd4ff567d67713638aa8958f4c3aaf119c2fe867927df8d156eae9e64736f6c63430008070033",
  "linkReferences": {},
  "deployedLinkReferences": {}
}