{
  "_format": "hh-sol-artifact-1",
  "contractName": "Loethery",
  "sourceName": "contracts/Loethery.sol",
  "abi": [
    {
      "inputs": [
        {
          "internalType": "uint64",
          "name": "subscriptionId",
          "type": "uint64"
        }
      ],
      "stateMutability": "nonpayable",
      "type": "constructor"
    },
    {
      "inputs": [
        {
          "internalType": "address",
          "name": "have",
          "type": "address"
        },
        {
          "internalType": "address",
          "name": "want",
          "type": "address"
        }
      ],
      "name": "OnlyCoordinatorCanFulfill",
      "type": "error"
    },
    {
      "inputs": [],
      "name": "buyEntry",
      "outputs": [],
      "stateMutability": "payable",
      "type": "function"
    },
    {
      "inputs": [],
      "name": "finishLottery",
      "outputs": [],
      "stateMutability": "payable",
      "type": "function"
    },
    {
      "inputs": [],
      "name": "getActiveRound",
      "outputs": [
        {
          "components": [
            {
              "internalType": "address[]",
              "name": "winners",
              "type": "address[]"
            },
            {
              "internalType": "string",
              "name": "name",
              "type": "string"
            },
            {
              "internalType": "uint256",
              "name": "startDate",
              "type": "uint256"
            },
            {
              "internalType": "uint256",
              "name": "pot",
              "type": "uint256"
            },
            {
              "internalType": "uint256",
              "name": "endDate",
              "type": "uint256"
            }
          ],
          "internalType": "struct Loethery.Lottery",
          "name": "",
          "type": "tuple"
        }
      ],
      "stateMutability": "view",
      "type": "function"
    },
    {
      "inputs": [],
      "name": "getBalance",
      "outputs": [
        {
          "internalType": "uint256",
          "name": "",
          "type": "uint256"
        }
      ],
      "stateMutability": "view",
      "type": "function"
    },
    {
      "inputs": [],
      "name": "getHistory",
      "outputs": [
        {
          "components": [
            {
              "internalType": "address[]",
              "name": "winners",
              "type": "address[]"
            },
            {
              "internalType": "string",
              "name": "name",
              "type": "string"
            },
            {
              "internalType": "uint256",
              "name": "startDate",
              "type": "uint256"
            },
            {
              "internalType": "uint256",
              "name": "pot",
              "type": "uint256"
            },
            {
              "internalType": "uint256",
              "name": "endDate",
              "type": "uint256"
            }
          ],
          "internalType": "struct Loethery.Lottery[]",
          "name": "",
          "type": "tuple[]"
        }
      ],
      "stateMutability": "view",
      "type": "function"
    },
    {
      "inputs": [],
      "name": "getPlayers",
      "outputs": [
        {
          "internalType": "address payable[]",
          "name": "",
          "type": "address[]"
        }
      ],
      "stateMutability": "view",
      "type": "function"
    },
    {
      "inputs": [],
      "name": "getPrice",
      "outputs": [
        {
          "internalType": "uint256",
          "name": "",
          "type": "uint256"
        }
      ],
      "stateMutability": "view",
      "type": "function"
    },
    {
      "inputs": [
        {
          "internalType": "uint256",
          "name": "",
          "type": "uint256"
        }
      ],
      "name": "history",
      "outputs": [
        {
          "internalType": "string",
          "name": "name",
          "type": "string"
        },
        {
          "internalType": "uint256",
          "name": "startDate",
          "type": "uint256"
        },
        {
          "internalType": "uint256",
          "name": "pot",
          "type": "uint256"
        },
        {
          "internalType": "uint256",
          "name": "endDate",
          "type": "uint256"
        }
      ],
      "stateMutability": "view",
      "type": "function"
    },
    {
      "inputs": [],
      "name": "isOwner",
      "outputs": [
        {
          "internalType": "bool",
          "name": "",
          "type": "bool"
        }
      ],
      "stateMutability": "view",
      "type": "function"
    },
    {
      "inputs": [
        {
          "internalType": "address",
          "name": "_user",
          "type": "address"
        }
      ],
      "name": "isParticipating",
      "outputs": [
        {
          "internalType": "bool",
          "name": "",
          "type": "bool"
        }
      ],
      "stateMutability": "view",
      "type": "function"
    },
    {
      "inputs": [],
      "name": "lotteryId",
      "outputs": [
        {
          "internalType": "uint32",
          "name": "",
          "type": "uint32"
        }
      ],
      "stateMutability": "view",
      "type": "function"
    },
    {
      "inputs": [
        {
          "internalType": "uint256",
          "name": "",
          "type": "uint256"
        }
      ],
      "name": "players",
      "outputs": [
        {
          "internalType": "address payable",
          "name": "",
          "type": "address"
        }
      ],
      "stateMutability": "view",
      "type": "function"
    },
    {
      "inputs": [
        {
          "internalType": "uint256",
          "name": "requestId",
          "type": "uint256"
        },
        {
          "internalType": "uint256[]",
          "name": "randomWords",
          "type": "uint256[]"
        }
      ],
      "name": "rawFulfillRandomWords",
      "outputs": [],
      "stateMutability": "nonpayable",
      "type": "function"
    },
    {
      "inputs": [
        {
          "internalType": "uint256",
          "name": "",
          "type": "uint256"
        }
      ],
      "name": "s_randomWords",
      "outputs": [
        {
          "internalType": "uint256",
          "name": "",
          "type": "uint256"
        }
      ],
      "stateMutability": "view",
      "type": "function"
    },
    {
      "inputs": [],
      "name": "s_requestId",
      "outputs": [
        {
          "internalType": "uint256",
          "name": "",
          "type": "uint256"
        }
      ],
      "stateMutability": "view",
      "type": "function"
    },
    {
      "inputs": [
        {
          "internalType": "uint256",
          "name": "_price",
          "type": "uint256"
        },
        {
          "internalType": "string",
          "name": "_name",
          "type": "string"
        },
        {
          "internalType": "uint256",
          "name": "_startDate",
          "type": "uint256"
        }
      ],
      "name": "startLottery",
      "outputs": [],
      "stateMutability": "nonpayable",
      "type": "function"
    },
    {
      "inputs": [],
      "name": "withdraw",
      "outputs": [],
      "stateMutability": "payable",
      "type": "function"
    }
  ],
  "bytecode": "0x60a0604052736168499c0cffcacd319c818142124b7a15e857ab600260006101000a81548173ffffffffffffffffffffffffffffffffffffffff021916908373ffffffffffffffffffffffffffffffffffffffff1602179055507301be23585060835e02b77ef475b0cc51aa1e0709600360006101000a81548173ffffffffffffffffffffffffffffffffffffffff021916908373ffffffffffffffffffffffffffffffffffffffff1602179055507fd89b2bf150e3b9e13446986e571fb9cab24b13cea0a43ea20a6049a85cc807cc60001b600455620186a0600560006101000a81548163ffffffff021916908363ffffffff1602179055506003600560046101000a81548161ffff021916908361ffff1602179055506002600560066101000a81548163ffffffff021916908363ffffffff1602179055506000600860186101000a81548160ff0219169083151502179055506040518060400160405280604660ff168152602001601960ff168152506011906002620001839291906200036a565b503480156200019157600080fd5b5060405162003073380380620030738339818101604052810190620001b79190620003f7565b600260009054906101000a900473ffffffffffffffffffffffffffffffffffffffff168073ffffffffffffffffffffffffffffffffffffffff1660808173ffffffffffffffffffffffffffffffffffffffff1660601b8152505050600260009054906101000a900473ffffffffffffffffffffffffffffffffffffffff166000806101000a81548173ffffffffffffffffffffffffffffffffffffffff021916908373ffffffffffffffffffffffffffffffffffffffff160217905550600360009054906101000a900473ffffffffffffffffffffffffffffffffffffffff16600160006101000a81548173ffffffffffffffffffffffffffffffffffffffff021916908373ffffffffffffffffffffffffffffffffffffffff16021790555033600860006101000a81548173ffffffffffffffffffffffffffffffffffffffff021916908373ffffffffffffffffffffffffffffffffffffffff16021790555080600160146101000a81548167ffffffffffffffff021916908367ffffffffffffffff1602179055506000600860146101000a81548163ffffffff021916908363ffffffff160217905550506200045c565b828054828255906000526020600020908101928215620003ae579160200282015b82811115620003ad578251829060ff169055916020019190600101906200038b565b5b509050620003bd9190620003c1565b5090565b5b80821115620003dc576000816000905550600101620003c2565b5090565b600081519050620003f18162000442565b92915050565b60006020828403121562000410576200040f6200043d565b5b60006200042084828501620003e0565b91505092915050565b600067ffffffffffffffff82169050919050565b600080fd5b6200044d8162000429565b81146200045957600080fd5b50565b60805160601c612bf1620004826000396000818161077501526107c90152612bf16000f3fe6080604052600436106100fe5760003560e01c80638f32d59b11610095578063e580f47b11610064578063e580f47b146102b5578063e89e106a146102e0578063f4caee881461030b578063f6eaffc814610348578063f71d96cb14610385576100fe565b80638f32d59b146101f457806398d5fdca1461021f578063a7a38f0b1461024a578063aa15efc81461028a576100fe565b80632c906ba2116100d15780632c906ba2146101ab57806335c13f30146101b55780633ccfd60b146101bf5780638b5b9ccc146101c9576100fe565b806306c5b7a01461010357806312065fe01461012e5780631a1ec86e146101595780631fe543e314610182575b600080fd5b34801561010f57600080fd5b506101186103c2565b6040516101259190612389565b60405180910390f35b34801561013a57600080fd5b50610143610569565b60405161015091906123ab565b60405180910390f35b34801561016557600080fd5b50610180600480360381019061017b9190611bbf565b6105cb565b005b34801561018e57600080fd5b506101a960048036038101906101a49190611b63565b610773565b005b6101b3610833565b005b6101bd610c60565b005b6101c7610dc0565b005b3480156101d557600080fd5b506101de610eb3565b6040516101eb919061216b565b60405180910390f35b34801561020057600080fd5b50610209610f41565b60405161021691906121af565b60405180910390f35b34801561022b57600080fd5b50610234610faa565b60405161024191906123ab565b60405180910390f35b34801561025657600080fd5b50610271600480360381019061026c9190611b09565b611003565b604051610281949392919061221d565b60405180910390f35b34801561029657600080fd5b5061029f6110cb565b6040516102ac919061218d565b60405180910390f35b3480156102c157600080fd5b506102ca611268565b6040516102d791906123c6565b60405180910390f35b3480156102ec57600080fd5b506102f561127e565b60405161030291906123ab565b60405180910390f35b34801561031757600080fd5b50610332600480360381019061032d9190611adc565b611284565b60405161033f91906121af565b60405180910390f35b34801561035457600080fd5b5061036f600480360381019061036a9190611b09565b611333565b60405161037c91906123ab565b60405180910390f35b34801561039157600080fd5b506103ac60048036038101906103a79190611b09565b611357565b6040516103b99190612127565b60405180910390f35b6103ca61167d565b600860189054906101000a900460ff16610419576040517f08c379a000000000000000000000000000000000000000000000000000000000815260040161041090612329565b60405180910390fd5b60096040518060a0016040529081600082018054806020026020016040519081016040528092919081815260200182805480156104ab57602002820191906000526020600020905b8160009054906101000a900473ffffffffffffffffffffffffffffffffffffffff1673ffffffffffffffffffffffffffffffffffffffff1681526020019060010190808311610461575b505050505081526020016001820180546104c490612733565b80601f01602080910402602001604051908101604052809291908181526020018280546104f090612733565b801561053d5780601f106105125761010080835404028352916020019161053d565b820191906000526020600020905b81548152906001019060200180831161052057829003601f168201915b505050505081526020016002820154815260200160038201548152602001600482015481525050905090565b6000600860009054906101000a900473ffffffffffffffffffffffffffffffffffffffff1673ffffffffffffffffffffffffffffffffffffffff163373ffffffffffffffffffffffffffffffffffffffff16146105c557600080fd5b47905090565b600860009054906101000a900473ffffffffffffffffffffffffffffffffffffffff1673ffffffffffffffffffffffffffffffffffffffff163373ffffffffffffffffffffffffffffffffffffffff161461062557600080fd5b600860189054906101000a900460ff1615610675576040517f08c379a000000000000000000000000000000000000000000000000000000000815260040161066c90612309565b60405180910390fd5b61067d611396565b826010819055506040518060a00160405280600067ffffffffffffffff8111156106aa576106a9612928565b5b6040519080825280602002602001820160405280156106d85781602001602082028036833780820191505090505b508152602001838152602001828152602001600081526020016000815250600960008201518160000190805190602001906107149291906116ac565b506020820151816001019080519060200190610731929190611736565b506040820151816002015560608201518160030155608082015181600401559050506001600860186101000a81548160ff021916908315150217905550505050565b7f000000000000000000000000000000000000000000000000000000000000000073ffffffffffffffffffffffffffffffffffffffff163373ffffffffffffffffffffffffffffffffffffffff161461082557337f00000000000000000000000000000000000000000000000000000000000000006040517f1cf993f400000000000000000000000000000000000000000000000000000000815260040161081c929190612142565b60405180910390fd5b61082f82826114f7565b5050565b600860009054906101000a900473ffffffffffffffffffffffffffffffffffffffff1673ffffffffffffffffffffffffffffffffffffffff163373ffffffffffffffffffffffffffffffffffffffff161461088d57600080fd5b6001600f80549050116108d5576040517f08c379a00000000000000000000000000000000000000000000000000000000081526004016108cc90612289565b60405180910390fd5b600860189054906101000a900460ff16610924576040517f08c379a000000000000000000000000000000000000000000000000000000000815260040161091b906122a9565b60405180910390fd5b6000600860186101000a81548160ff02191690831515021790555060005b6002811015610b2e576000600f8054905060068381548110610967576109666128f9565b5b906000526020600020015461097c919061280c565b90506009600001600f8281548110610997576109966128f9565b5b9060005260206000200160009054906101000a900473ffffffffffffffffffffffffffffffffffffffff169080600181540180825580915050600190039060005260206000200160009091909190916101000a81548173ffffffffffffffffffffffffffffffffffffffff021916908373ffffffffffffffffffffffffffffffffffffffff1602179055506000600f8281548110610a3857610a376128f9565b5b9060005260206000200160009054906101000a900473ffffffffffffffffffffffffffffffffffffffff1673ffffffffffffffffffffffffffffffffffffffff16606460118581548110610a8f57610a8e6128f9565b5b9060005260206000200154600960030154610aaa91906125cd565b610ab4919061259c565b604051610ac090612112565b60006040518083038185875af1925050503d8060008114610afd576040519150601f19603f3d011682016040523d82523d6000602084013e610b02565b606091505b5050905080610b1057600080fd5b610b1982611512565b50508080610b2690612796565b915050610942565b5042600960040181905550600e600990806001815401808255809150506001900390600052602060002090600502016000909190919091506000820181600001908054610b7c9291906117bc565b506001820181600101908054610b9190612733565b610b9c92919061180e565b5060028201548160020155600382015481600301556004820154816004015550506008601481819054906101000a900463ffffffff1680929190610bdf906127df565b91906101000a81548163ffffffff021916908363ffffffff16021790555050600067ffffffffffffffff811115610c1957610c18612928565b5b604051908082528060200260200182016040528015610c475781602001602082028036833780820191505090505b50600f9080519060200190610c5d92919061189b565b50565b600860189054906101000a900460ff16610caf576040517f08c379a0000000000000000000000000000000000000000000000000000000008152600401610ca690612369565b60405180910390fd5b610cb833611284565b15610cf8576040517f08c379a0000000000000000000000000000000000000000000000000000000008152600401610cef90612349565b60405180910390fd5b601054341015610d3d576040517f08c379a0000000000000000000000000000000000000000000000000000000008152600401610d3490612269565b60405180910390fd5b60105460096003016000828254610d549190612546565b92505081905550600f339080600181540180825580915050600190039060005260206000200160009091909190916101000a81548173ffffffffffffffffffffffffffffffffffffffff021916908373ffffffffffffffffffffffffffffffffffffffff160217905550565b600860009054906101000a900473ffffffffffffffffffffffffffffffffffffffff1673ffffffffffffffffffffffffffffffffffffffff163373ffffffffffffffffffffffffffffffffffffffff1614610e1a57600080fd5b600860189054906101000a900460ff1615610e6a576040517f08c379a0000000000000000000000000000000000000000000000000000000008152600401610e61906122c9565b60405180910390fd5b3373ffffffffffffffffffffffffffffffffffffffff166108fc479081150290604051600060405180830381858888f19350505050158015610eb0573d6000803e3d6000fd5b50565b6060600f805480602002602001604051908101604052809291908181526020018280548015610f3757602002820191906000526020600020905b8160009054906101000a900473ffffffffffffffffffffffffffffffffffffffff1673ffffffffffffffffffffffffffffffffffffffff1681526020019060010190808311610eed575b5050505050905090565b6000600860009054906101000a900473ffffffffffffffffffffffffffffffffffffffff1673ffffffffffffffffffffffffffffffffffffffff163373ffffffffffffffffffffffffffffffffffffffff161415610fa25760019050610fa7565b600090505b90565b6000600860189054906101000a900460ff16610ffb576040517f08c379a0000000000000000000000000000000000000000000000000000000008152600401610ff290612329565b60405180910390fd5b601054905090565b600e818154811061101357600080fd5b906000526020600020906005020160009150905080600101805461103690612733565b80601f016020809104026020016040519081016040528092919081815260200182805461106290612733565b80156110af5780601f10611084576101008083540402835291602001916110af565b820191906000526020600020905b81548152906001019060200180831161109257829003601f168201915b5050505050908060020154908060030154908060040154905084565b6060600e805480602002602001604051908101604052809291908181526020016000905b8282101561125f57838290600052602060002090600502016040518060a00160405290816000820180548060200260200160405190810160405280929190818152602001828054801561119757602002820191906000526020600020905b8160009054906101000a900473ffffffffffffffffffffffffffffffffffffffff1673ffffffffffffffffffffffffffffffffffffffff168152602001906001019080831161114d575b505050505081526020016001820180546111b090612733565b80601f01602080910402602001604051908101604052809291908181526020018280546111dc90612733565b80156112295780601f106111fe57610100808354040283529160200191611229565b820191906000526020600020905b81548152906001019060200180831161120c57829003601f168201915b505050505081526020016002820154815260200160038201548152602001600482015481525050815260200190600101906110ef565b50505050905090565b600860149054906101000a900463ffffffff1681565b60075481565b600080600090505b600f80549050811015611328578273ffffffffffffffffffffffffffffffffffffffff16600f82815481106112c4576112c36128f9565b5b9060005260206000200160009054906101000a900473ffffffffffffffffffffffffffffffffffffffff1673ffffffffffffffffffffffffffffffffffffffff16141561131557600191505061132e565b808061132090612796565b91505061128c565b50600090505b919050565b6006818154811061134357600080fd5b906000526020600020016000915090505481565b600f818154811061136757600080fd5b906000526020600020016000915054906101000a900473ffffffffffffffffffffffffffffffffffffffff1681565b600860009054906101000a900473ffffffffffffffffffffffffffffffffffffffff1673ffffffffffffffffffffffffffffffffffffffff163373ffffffffffffffffffffffffffffffffffffffff16146113f057600080fd5b60008054906101000a900473ffffffffffffffffffffffffffffffffffffffff1673ffffffffffffffffffffffffffffffffffffffff16635d3b1d30600454600160149054906101000a900467ffffffffffffffff16600560049054906101000a900461ffff16600560009054906101000a900463ffffffff16600560069054906101000a900463ffffffff166040518663ffffffff1660e01b815260040161149d9594939291906121ca565b602060405180830381600087803b1580156114b757600080fd5b505af11580156114cb573d6000803e3d6000fd5b505050506040513d601f19601f820116820180604052508101906114ef9190611b36565b600781905550565b806006908051906020019061150d929190611925565b505050565b600f805490508110611559576040517f08c379a0000000000000000000000000000000000000000000000000000000008152600401611550906122e9565b60405180910390fd5b60008190505b6001600f805490506115719190612627565b81101561163257600f6001826115879190612546565b81548110611598576115976128f9565b5b9060005260206000200160009054906101000a900473ffffffffffffffffffffffffffffffffffffffff16600f82815481106115d7576115d66128f9565b5b9060005260206000200160006101000a81548173ffffffffffffffffffffffffffffffffffffffff021916908373ffffffffffffffffffffffffffffffffffffffff160217905550808061162a90612796565b91505061155f565b50600f805480611645576116446128ca565b5b6001900381819060005260206000200160006101000a81549073ffffffffffffffffffffffffffffffffffffffff0219169055905550565b6040518060a0016040528060608152602001606081526020016000815260200160008152602001600081525090565b828054828255906000526020600020908101928215611725579160200282015b828111156117245782518260006101000a81548173ffffffffffffffffffffffffffffffffffffffff021916908373ffffffffffffffffffffffffffffffffffffffff160217905550916020019190600101906116cc565b5b5090506117329190611972565b5090565b82805461174290612733565b90600052602060002090601f01602090048101928261176457600085556117ab565b82601f1061177d57805160ff19168380011785556117ab565b828001600101855582156117ab579182015b828111156117aa57825182559160200191906001019061178f565b5b5090506117b89190611972565b5090565b8280548282559060005260206000209081019282156117fd5760005260206000209182015b828111156117fc5782548255916001019190600101906117e1565b5b50905061180a9190611972565b5090565b82805461181a90612733565b90600052602060002090601f01602090048101928261183c576000855561188a565b82601f1061184d578054855561188a565b8280016001018555821561188a57600052602060002091601f016020900482015b8281111561188957825482559160010191906001019061186e565b5b5090506118979190611972565b5090565b828054828255906000526020600020908101928215611914579160200282015b828111156119135782518260006101000a81548173ffffffffffffffffffffffffffffffffffffffff021916908373ffffffffffffffffffffffffffffffffffffffff160217905550916020019190600101906118bb565b5b5090506119219190611972565b5090565b828054828255906000526020600020908101928215611961579160200282015b82811115611960578251825591602001919060010190611945565b5b50905061196e9190611972565b5090565b5b8082111561198b576000816000905550600101611973565b5090565b60006119a261199d84612406565b6123e1565b905080838252602082019050828560208602820111156119c5576119c461295c565b5b60005b858110156119f557816119db8882611ab2565b8452602084019350602083019250506001810190506119c8565b5050509392505050565b6000611a12611a0d84612432565b6123e1565b905082815260208101848484011115611a2e57611a2d612961565b5b611a398482856126f1565b509392505050565b600081359050611a5081612b8d565b92915050565b600082601f830112611a6b57611a6a612957565b5b8135611a7b84826020860161198f565b91505092915050565b600082601f830112611a9957611a98612957565b5b8135611aa98482602086016119ff565b91505092915050565b600081359050611ac181612ba4565b92915050565b600081519050611ad681612ba4565b92915050565b600060208284031215611af257611af161296b565b5b6000611b0084828501611a41565b91505092915050565b600060208284031215611b1f57611b1e61296b565b5b6000611b2d84828501611ab2565b91505092915050565b600060208284031215611b4c57611b4b61296b565b5b6000611b5a84828501611ac7565b91505092915050565b60008060408385031215611b7a57611b7961296b565b5b6000611b8885828601611ab2565b925050602083013567ffffffffffffffff811115611ba957611ba8612966565b5b611bb585828601611a56565b9150509250929050565b600080600060608486031215611bd857611bd761296b565b5b6000611be686828701611ab2565b935050602084013567ffffffffffffffff811115611c0757611c06612966565b5b611c1386828701611a84565b9250506040611c2486828701611ab2565b9150509250925092565b6000611c3a8383611c72565b60208301905092915050565b6000611c528383611c90565b60208301905092915050565b6000611c6a8383611fcd565b905092915050565b611c7b8161266d565b82525050565b611c8a8161266d565b82525050565b611c998161265b565b82525050565b611ca88161265b565b82525050565b6000611cb982612493565b611cc381856124e6565b9350611cce83612463565b8060005b83811015611cff578151611ce68882611c46565b9750611cf1836124bf565b925050600181019050611cd2565b5085935050505092915050565b6000611d178261249e565b611d2181856124f7565b9350611d2c83612473565b8060005b83811015611d5d578151611d448882611c2e565b9750611d4f836124cc565b925050600181019050611d30565b5085935050505092915050565b6000611d75826124a9565b611d7f8185612508565b935083602082028501611d9185612483565b8060005b85811015611dcd5784840389528151611dae8582611c5e565b9450611db9836124d9565b925060208a01995050600181019050611d95565b50829750879550505050505092915050565b611de88161267f565b82525050565b611df78161268b565b82525050565b6000611e08826124b4565b611e128185612524565b9350611e22818560208601612700565b611e2b81612970565b840191505092915050565b6000611e41826124b4565b611e4b8185612535565b9350611e5b818560208601612700565b611e6481612970565b840191505092915050565b6000611e7c601b83612535565b9150611e8782612981565b602082019050919050565b6000611e9f602a83612535565b9150611eaa826129aa565b604082019050919050565b6000611ec2601083612535565b9150611ecd826129f9565b602082019050919050565b6000611ee5604283612535565b9150611ef082612a22565b606082019050919050565b6000611f08602083612535565b9150611f1382612a97565b602082019050919050565b6000611f2b602183612535565b9150611f3682612ac0565b604082019050919050565b6000611f4e601a83612535565b9150611f5982612b0f565b602082019050919050565b6000611f71600083612519565b9150611f7c82612b38565b600082019050919050565b6000611f94601a83612535565b9150611f9f82612b3b565b602082019050919050565b6000611fb7601283612535565b9150611fc282612b64565b602082019050919050565b600060a0830160008301518482036000860152611fea8282611cae565b915050602083015184820360208601526120048282611dfd565b915050604083015161201960408601826120d6565b50606083015161202c60608601826120d6565b50608083015161203f60808601826120d6565b508091505092915050565b600060a08301600083015184820360008601526120678282611cae565b915050602083015184820360208601526120818282611dfd565b915050604083015161209660408601826120d6565b5060608301516120a960608601826120d6565b5060808301516120bc60808601826120d6565b508091505092915050565b6120d081612695565b82525050565b6120df816126c3565b82525050565b6120ee816126c3565b82525050565b6120fd816126cd565b82525050565b61210c816126dd565b82525050565b600061211d82611f64565b9150819050919050565b600060208201905061213c6000830184611c81565b92915050565b60006040820190506121576000830185611c9f565b6121646020830184611c9f565b9392505050565b600060208201905081810360008301526121858184611d0c565b905092915050565b600060208201905081810360008301526121a78184611d6a565b905092915050565b60006020820190506121c46000830184611ddf565b92915050565b600060a0820190506121df6000830188611dee565b6121ec6020830187612103565b6121f960408301866120c7565b61220660608301856120f4565b61221360808301846120f4565b9695505050505050565b600060808201905081810360008301526122378187611e36565b905061224660208301866120e5565b61225360408301856120e5565b61226060608301846120e5565b95945050505050565b6000602082019050818103600083015261228281611e6f565b9050919050565b600060208201905081810360008301526122a281611e92565b9050919050565b600060208201905081810360008301526122c281611eb5565b9050919050565b600060208201905081810360008301526122e281611ed8565b9050919050565b6000602082019050818103600083015261230281611efb565b9050919050565b6000602082019050818103600083015261232281611f1e565b9050919050565b6000602082019050818103600083015261234281611f41565b9050919050565b6000602082019050818103600083015261236281611f87565b9050919050565b6000602082019050818103600083015261238281611faa565b9050919050565b600060208201905081810360008301526123a3818461204a565b905092915050565b60006020820190506123c060008301846120e5565b92915050565b60006020820190506123db60008301846120f4565b92915050565b60006123eb6123fc565b90506123f78282612765565b919050565b6000604051905090565b600067ffffffffffffffff82111561242157612420612928565b5b602082029050602081019050919050565b600067ffffffffffffffff82111561244d5761244c612928565b5b61245682612970565b9050602081019050919050565b6000819050602082019050919050565b6000819050602082019050919050565b6000819050602082019050919050565b600081519050919050565b600081519050919050565b600081519050919050565b600081519050919050565b6000602082019050919050565b6000602082019050919050565b6000602082019050919050565b600082825260208201905092915050565b600082825260208201905092915050565b600082825260208201905092915050565b600081905092915050565b600082825260208201905092915050565b600082825260208201905092915050565b6000612551826126c3565b915061255c836126c3565b9250827fffffffffffffffffffffffffffffffffffffffffffffffffffffffffffffffff038211156125915761259061283d565b5b828201905092915050565b60006125a7826126c3565b91506125b2836126c3565b9250826125c2576125c161286c565b5b828204905092915050565b60006125d8826126c3565b91506125e3836126c3565b9250817fffffffffffffffffffffffffffffffffffffffffffffffffffffffffffffffff048311821515161561261c5761261b61283d565b5b828202905092915050565b6000612632826126c3565b915061263d836126c3565b9250828210156126505761264f61283d565b5b828203905092915050565b6000612666826126a3565b9050919050565b6000612678826126a3565b9050919050565b60008115159050919050565b6000819050919050565b600061ffff82169050919050565b600073ffffffffffffffffffffffffffffffffffffffff82169050919050565b6000819050919050565b600063ffffffff82169050919050565b600067ffffffffffffffff82169050919050565b82818337600083830152505050565b60005b8381101561271e578082015181840152602081019050612703565b8381111561272d576000848401525b50505050565b6000600282049050600182168061274b57607f821691505b6020821081141561275f5761275e61289b565b5b50919050565b61276e82612970565b810181811067ffffffffffffffff8211171561278d5761278c612928565b5b80604052505050565b60006127a1826126c3565b91507fffffffffffffffffffffffffffffffffffffffffffffffffffffffffffffffff8214156127d4576127d361283d565b5b600182019050919050565b60006127ea826126cd565b915063ffffffff8214156128015761280061283d565b5b600182019050919050565b6000612817826126c3565b9150612822836126c3565b9250826128325761283161286c565b5b828206905092915050565b7f4e487b7100000000000000000000000000000000000000000000000000000000600052601160045260246000fd5b7f4e487b7100000000000000000000000000000000000000000000000000000000600052601260045260246000fd5b7f4e487b7100000000000000000000000000000000000000000000000000000000600052602260045260246000fd5b7f4e487b7100000000000000000000000000000000000000000000000000000000600052603160045260246000fd5b7f4e487b7100000000000000000000000000000000000000000000000000000000600052603260045260246000fd5b7f4e487b7100000000000000000000000000000000000000000000000000000000600052604160045260246000fd5b600080fd5b600080fd5b600080fd5b600080fd5b600080fd5b6000601f19601f8301169050919050565b7f54686520616d6f756e742073656e7420697320746f6f206c6f772e0000000000600082015250565b7f5468657265206172656e277420656e6f75676820706c6179657273207061727460008201527f696369706174696e672e00000000000000000000000000000000000000000000602082015250565b7f4e6f20726f756e64206163746976652e00000000000000000000000000000000600082015250565b7f596f752063616e27742074616b65206d6f6e6579206f7574206f66207468652060008201527f706f742e205761697420666f722074686520726f756e6420746f2066696e697360208201527f682e000000000000000000000000000000000000000000000000000000000000604082015250565b7f496e6465782070726f7669646564206973206f7574206f6620626f756e64732e600082015250565b7f416e6f7468657220726f756e6420697320616c72656164792072756e6e696e6760008201527f2e00000000000000000000000000000000000000000000000000000000000000602082015250565b7f4e6f20726f756e642063757272656e746c79206163746976652e000000000000600082015250565b50565b7f5573657220697320616c72656164792072656769737465726564000000000000600082015250565b7f4c6f74746572792068617320656e6465642e0000000000000000000000000000600082015250565b612b968161265b565b8114612ba157600080fd5b50565b612bad816126c3565b8114612bb857600080fd5b5056fea2646970667358221220381f250bb2bbd379eb4e8dbf7d5619bbcf74bb469abc0f8c3e165a41010b8bfa64736f6c63430008070033",
  "linkReferences": {},
  "deployedLinkReferences": {}
}