{
  "_format": "hh-sol-artifact-1",
  "contractName": "Loethery",
  "sourceName": "contracts/Loethery.sol",
  "abi": [
    {
      "inputs": [
        {
          "internalType": "uint64",
          "name": "subscriptionId",
          "type": "uint64"
        }
      ],
      "stateMutability": "nonpayable",
      "type": "constructor"
    },
    {
      "inputs": [
        {
          "internalType": "address",
          "name": "have",
          "type": "address"
        },
        {
          "internalType": "address",
          "name": "want",
          "type": "address"
        }
      ],
      "name": "OnlyCoordinatorCanFulfill",
      "type": "error"
    },
    {
      "inputs": [],
      "name": "buyEntry",
      "outputs": [],
      "stateMutability": "payable",
      "type": "function"
    },
    {
      "inputs": [],
      "name": "finishLottery",
      "outputs": [],
      "stateMutability": "payable",
      "type": "function"
    },
    {
      "inputs": [],
      "name": "getPlayers",
      "outputs": [
        {
          "internalType": "address payable[]",
          "name": "",
          "type": "address[]"
        }
      ],
      "stateMutability": "view",
      "type": "function"
    },
    {
      "inputs": [],
      "name": "isOwner",
      "outputs": [
        {
          "internalType": "bool",
          "name": "",
          "type": "bool"
        }
      ],
      "stateMutability": "view",
      "type": "function"
    },
    {
      "inputs": [
        {
          "internalType": "address",
          "name": "_user",
          "type": "address"
        }
      ],
      "name": "isParticipating",
      "outputs": [
        {
          "internalType": "bool",
          "name": "",
          "type": "bool"
        }
      ],
      "stateMutability": "view",
      "type": "function"
    },
    {
      "inputs": [
        {
          "internalType": "uint256",
          "name": "",
          "type": "uint256"
        }
      ],
      "name": "lotteryHistory",
      "outputs": [
        {
          "internalType": "string",
          "name": "lotteryName",
          "type": "string"
        },
        {
          "internalType": "uint256",
          "name": "lotteryDate",
          "type": "uint256"
        },
        {
          "internalType": "uint256",
          "name": "pot",
          "type": "uint256"
        }
      ],
      "stateMutability": "view",
      "type": "function"
    },
    {
      "inputs": [],
      "name": "lotteryId",
      "outputs": [
        {
          "internalType": "uint32",
          "name": "",
          "type": "uint32"
        }
      ],
      "stateMutability": "view",
      "type": "function"
    },
    {
      "inputs": [
        {
          "internalType": "uint256",
          "name": "",
          "type": "uint256"
        }
      ],
      "name": "players",
      "outputs": [
        {
          "internalType": "address payable",
          "name": "",
          "type": "address"
        }
      ],
      "stateMutability": "view",
      "type": "function"
    },
    {
      "inputs": [
        {
          "internalType": "uint256",
          "name": "_cost",
          "type": "uint256"
        }
      ],
      "name": "priceSet",
      "outputs": [],
      "stateMutability": "nonpayable",
      "type": "function"
    },
    {
      "inputs": [
        {
          "internalType": "uint256",
          "name": "requestId",
          "type": "uint256"
        },
        {
          "internalType": "uint256[]",
          "name": "randomWords",
          "type": "uint256[]"
        }
      ],
      "name": "rawFulfillRandomWords",
      "outputs": [],
      "stateMutability": "nonpayable",
      "type": "function"
    },
    {
      "inputs": [],
      "name": "retrieveLotteryHistory",
      "outputs": [
        {
          "components": [
            {
              "internalType": "address[]",
              "name": "winners",
              "type": "address[]"
            },
            {
              "internalType": "string",
              "name": "lotteryName",
              "type": "string"
            },
            {
              "internalType": "uint256",
              "name": "lotteryDate",
              "type": "uint256"
            },
            {
              "internalType": "uint256",
              "name": "pot",
              "type": "uint256"
            }
          ],
          "internalType": "struct Loethery.Lottery[]",
          "name": "",
          "type": "tuple[]"
        }
      ],
      "stateMutability": "view",
      "type": "function"
    },
    {
      "inputs": [
        {
          "internalType": "uint256",
          "name": "",
          "type": "uint256"
        }
      ],
      "name": "s_randomWords",
      "outputs": [
        {
          "internalType": "uint256",
          "name": "",
          "type": "uint256"
        }
      ],
      "stateMutability": "view",
      "type": "function"
    },
    {
      "inputs": [],
      "name": "s_requestId",
      "outputs": [
        {
          "internalType": "uint256",
          "name": "",
          "type": "uint256"
        }
      ],
      "stateMutability": "view",
      "type": "function"
    },
    {
      "inputs": [
        {
          "internalType": "uint256",
          "name": "_cost",
          "type": "uint256"
        },
        {
          "internalType": "string",
          "name": "_lotteryName",
          "type": "string"
        },
        {
          "internalType": "uint256",
          "name": "_lotteryDate",
          "type": "uint256"
        }
      ],
      "name": "startLottery",
      "outputs": [],
      "stateMutability": "nonpayable",
      "type": "function"
    },
    {
      "inputs": [],
      "name": "withdraw",
      "outputs": [],
      "stateMutability": "payable",
      "type": "function"
    }
  ],
  "bytecode": "0x60a0604052736168499c0cffcacd319c818142124b7a15e857ab600260006101000a81548173ffffffffffffffffffffffffffffffffffffffff021916908373ffffffffffffffffffffffffffffffffffffffff1602179055507301be23585060835e02b77ef475b0cc51aa1e0709600360006101000a81548173ffffffffffffffffffffffffffffffffffffffff021916908373ffffffffffffffffffffffffffffffffffffffff1602179055507fd89b2bf150e3b9e13446986e571fb9cab24b13cea0a43ea20a6049a85cc807cc60001b600455620186a0600560006101000a81548163ffffffff021916908363ffffffff1602179055506003600560046101000a81548161ffff021916908361ffff1602179055506002600560066101000a81548163ffffffff021916908363ffffffff1602179055506040518060400160405280604660ff168152602001601960ff168152506010906002620001689291906200036a565b506001601160006101000a81548160ff0219169083151502179055503480156200019157600080fd5b506040516200297a3803806200297a8339818101604052810190620001b79190620003f7565b600260009054906101000a900473ffffffffffffffffffffffffffffffffffffffff168073ffffffffffffffffffffffffffffffffffffffff1660808173ffffffffffffffffffffffffffffffffffffffff1660601b8152505050600260009054906101000a900473ffffffffffffffffffffffffffffffffffffffff166000806101000a81548173ffffffffffffffffffffffffffffffffffffffff021916908373ffffffffffffffffffffffffffffffffffffffff160217905550600360009054906101000a900473ffffffffffffffffffffffffffffffffffffffff16600160006101000a81548173ffffffffffffffffffffffffffffffffffffffff021916908373ffffffffffffffffffffffffffffffffffffffff16021790555033600860006101000a81548173ffffffffffffffffffffffffffffffffffffffff021916908373ffffffffffffffffffffffffffffffffffffffff16021790555080600160146101000a81548167ffffffffffffffff021916908367ffffffffffffffff1602179055506000600860146101000a81548163ffffffff021916908363ffffffff160217905550506200045c565b828054828255906000526020600020908101928215620003ae579160200282015b82811115620003ad578251829060ff169055916020019190600101906200038b565b5b509050620003bd9190620003c1565b5090565b5b80821115620003dc576000816000905550600101620003c2565b5090565b600081519050620003f18162000442565b92915050565b60006020828403121562000410576200040f6200043d565b5b60006200042084828501620003e0565b91505092915050565b600067ffffffffffffffff82169050919050565b600080fd5b6200044d8162000429565b81146200045957600080fd5b50565b60805160601c6124f862000482600039600081816103fa015261044e01526124f86000f3fe6080604052600436106100e85760003560e01c806382231ec61161008a578063e89e106a11610059578063e89e106a14610271578063f4caee881461029c578063f6eaffc8146102d9578063f71d96cb14610316576100e8565b806382231ec6146101c75780638b5b9ccc146101f05780638f32d59b1461021b578063e580f47b14610246576100e8565b80632f1b1df1116100c65780632f1b1df11461014957806335c13f30146101745780633ccfd60b1461017e5780636d6fe23014610188576100e8565b80631a1ec86e146100ed5780631fe543e3146101165780632c906ba21461013f575b600080fd5b3480156100f957600080fd5b50610114600480360381019061010f919061183a565b610353565b005b34801561012257600080fd5b5061013d600480360381019061013891906117de565b6103f8565b005b6101476104b8565b005b34801561015557600080fd5b5061015e610968565b60405161016b9190611cc9565b60405180910390f35b61017c610afb565b005b610186610c59565b005b34801561019457600080fd5b506101af60048036038101906101aa9190611784565b610cfc565b6040516101be93929190611d59565b60405180910390f35b3480156101d357600080fd5b506101ee60048036038101906101e99190611784565b610dbe565b005b3480156101fc57600080fd5b50610205610e22565b6040516102129190611ca7565b60405180910390f35b34801561022757600080fd5b50610230610eb0565b60405161023d9190611ceb565b60405180910390f35b34801561025257600080fd5b5061025b610f19565b6040516102689190611e32565b60405180910390f35b34801561027d57600080fd5b50610286610f2f565b6040516102939190611e17565b60405180910390f35b3480156102a857600080fd5b506102c360048036038101906102be9190611757565b610f35565b6040516102d09190611ceb565b60405180910390f35b3480156102e557600080fd5b5061030060048036038101906102fb9190611784565b610fe4565b60405161030d9190611e17565b60405180910390f35b34801561032257600080fd5b5061033d60048036038101906103389190611784565b611008565b60405161034a9190611c63565b60405180910390f35b600860009054906101000a900473ffffffffffffffffffffffffffffffffffffffff1673ffffffffffffffffffffffffffffffffffffffff163373ffffffffffffffffffffffffffffffffffffffff16146103ad57600080fd5b6103b5611047565b6103be816111a8565b6103c783610dbe565b6103d08261120c565b6000600c819055506000601160006101000a81548160ff021916908315150217905550505050565b7f000000000000000000000000000000000000000000000000000000000000000073ffffffffffffffffffffffffffffffffffffffff163373ffffffffffffffffffffffffffffffffffffffff16146104aa57337f00000000000000000000000000000000000000000000000000000000000000006040517f1cf993f40000000000000000000000000000000000000000000000000000000081526004016104a1929190611c7e565b60405180910390fd5b6104b48282611280565b5050565b600860009054906101000a900473ffffffffffffffffffffffffffffffffffffffff1673ffffffffffffffffffffffffffffffffffffffff163373ffffffffffffffffffffffffffffffffffffffff161461051257600080fd5b6001601160006101000a81548160ff02191690831515021790555060005b6002811015610714576000600e805490506006838154811061055557610554612365565b5b906000526020600020015461056a9190612278565b90506009600e828154811061058257610581612365565b5b9060005260206000200160009054906101000a900473ffffffffffffffffffffffffffffffffffffffff169080600181540180825580915050600190039060005260206000200160009091909190916101000a81548173ffffffffffffffffffffffffffffffffffffffff021916908373ffffffffffffffffffffffffffffffffffffffff1602179055506000600e828154811061062357610622612365565b5b9060005260206000200160009054906101000a900473ffffffffffffffffffffffffffffffffffffffff1673ffffffffffffffffffffffffffffffffffffffff1660646010858154811061067a57610679612365565b5b9060005260206000200154476106909190612039565b61069a9190612008565b6040516106a690611c4e565b60006040518083038185875af1925050503d80600081146106e3576040519150601f19603f3d011682016040523d82523d6000602084013e6106e8565b606091505b50509050806106f657600080fd5b6106ff8261129b565b5050808061070c90612202565b915050610530565b50600d604051806080016040528060098054806020026020016040519081016040528092919081815260200182805480156107a457602002820191906000526020600020905b8160009054906101000a900473ffffffffffffffffffffffffffffffffffffffff1673ffffffffffffffffffffffffffffffffffffffff168152602001906001019080831161075a575b50505050508152602001600a80546107bb9061219f565b80601f01602080910402602001604051908101604052809291908181526020018280546107e79061219f565b80156108345780601f1061080957610100808354040283529160200191610834565b820191906000526020600020905b81548152906001019060200180831161081757829003601f168201915b50505050508152602001600b548152602001600c5481525090806001815401808255809150506001900390600052602060002090600402016000909190919091506000820151816000019080519060200190610891929190611406565b5060208201518160010190805190602001906108ae929190611490565b50604082015181600201556060820151816003015550506008601481819054906101000a900463ffffffff16809291906108e79061224b565b91906101000a81548163ffffffff021916908363ffffffff16021790555050600067ffffffffffffffff81111561092157610920612394565b5b60405190808252806020026020018201604052801561094f5781602001602082028036833780820191505090505b50600e9080519060200190610965929190611516565b50565b6060600d805480602002602001604051908101604052809291908181526020016000905b82821015610af2578382906000526020600020906004020160405180608001604052908160008201805480602002602001604051908101604052809291908181526020018280548015610a3457602002820191906000526020600020905b8160009054906101000a900473ffffffffffffffffffffffffffffffffffffffff1673ffffffffffffffffffffffffffffffffffffffff16815260200190600101908083116109ea575b50505050508152602001600182018054610a4d9061219f565b80601f0160208091040260200160405190810160405280929190818152602001828054610a799061219f565b8015610ac65780601f10610a9b57610100808354040283529160200191610ac6565b820191906000526020600020905b815481529060010190602001808311610aa957829003601f168201915b50505050508152602001600282015481526020016003820154815250508152602001906001019061098c565b50505050905090565b601160009054906101000a900460ff1615610b4b576040517f08c379a0000000000000000000000000000000000000000000000000000000008152600401610b4290611df7565b60405180910390fd5b610b5433610f35565b15610b94576040517f08c379a0000000000000000000000000000000000000000000000000000000008152600401610b8b90611dd7565b60405180910390fd5b600f54341015610bd9576040517f08c379a0000000000000000000000000000000000000000000000000000000008152600401610bd090611d97565b60405180910390fd5b600f54600c6000828254610bed9190611fb2565b92505081905550600e339080600181540180825580915050600190039060005260206000200160009091909190916101000a81548173ffffffffffffffffffffffffffffffffffffffff021916908373ffffffffffffffffffffffffffffffffffffffff160217905550565b600860009054906101000a900473ffffffffffffffffffffffffffffffffffffffff1673ffffffffffffffffffffffffffffffffffffffff163373ffffffffffffffffffffffffffffffffffffffff1614610cb357600080fd5b3373ffffffffffffffffffffffffffffffffffffffff166108fc479081150290604051600060405180830381858888f19350505050158015610cf9573d6000803e3d6000fd5b50565b600d8181548110610d0c57600080fd5b9060005260206000209060040201600091509050806001018054610d2f9061219f565b80601f0160208091040260200160405190810160405280929190818152602001828054610d5b9061219f565b8015610da85780601f10610d7d57610100808354040283529160200191610da8565b820191906000526020600020905b815481529060010190602001808311610d8b57829003601f168201915b5050505050908060020154908060030154905083565b600860009054906101000a900473ffffffffffffffffffffffffffffffffffffffff1673ffffffffffffffffffffffffffffffffffffffff163373ffffffffffffffffffffffffffffffffffffffff1614610e1857600080fd5b80600f8190555050565b6060600e805480602002602001604051908101604052809291908181526020018280548015610ea657602002820191906000526020600020905b8160009054906101000a900473ffffffffffffffffffffffffffffffffffffffff1673ffffffffffffffffffffffffffffffffffffffff1681526020019060010190808311610e5c575b5050505050905090565b6000600860009054906101000a900473ffffffffffffffffffffffffffffffffffffffff1673ffffffffffffffffffffffffffffffffffffffff163373ffffffffffffffffffffffffffffffffffffffff161415610f115760019050610f16565b600090505b90565b600860149054906101000a900463ffffffff1681565b60075481565b600080600090505b600e80549050811015610fd9578273ffffffffffffffffffffffffffffffffffffffff16600e8281548110610f7557610f74612365565b5b9060005260206000200160009054906101000a900473ffffffffffffffffffffffffffffffffffffffff1673ffffffffffffffffffffffffffffffffffffffff161415610fc6576001915050610fdf565b8080610fd190612202565b915050610f3d565b50600090505b919050565b60068181548110610ff457600080fd5b906000526020600020016000915090505481565b600e818154811061101857600080fd5b906000526020600020016000915054906101000a900473ffffffffffffffffffffffffffffffffffffffff1681565b600860009054906101000a900473ffffffffffffffffffffffffffffffffffffffff1673ffffffffffffffffffffffffffffffffffffffff163373ffffffffffffffffffffffffffffffffffffffff16146110a157600080fd5b60008054906101000a900473ffffffffffffffffffffffffffffffffffffffff1673ffffffffffffffffffffffffffffffffffffffff16635d3b1d30600454600160149054906101000a900467ffffffffffffffff16600560049054906101000a900461ffff16600560009054906101000a900463ffffffff16600560069054906101000a900463ffffffff166040518663ffffffff1660e01b815260040161114e959493929190611d06565b602060405180830381600087803b15801561116857600080fd5b505af115801561117c573d6000803e3d6000fd5b505050506040513d601f19601f820116820180604052508101906111a091906117b1565b600781905550565b600860009054906101000a900473ffffffffffffffffffffffffffffffffffffffff1673ffffffffffffffffffffffffffffffffffffffff163373ffffffffffffffffffffffffffffffffffffffff161461120257600080fd5b80600b8190555050565b600860009054906101000a900473ffffffffffffffffffffffffffffffffffffffff1673ffffffffffffffffffffffffffffffffffffffff163373ffffffffffffffffffffffffffffffffffffffff161461126657600080fd5b80600a908051906020019061127c929190611490565b5050565b80600690805190602001906112969291906115a0565b505050565b600e8054905081106112e2576040517f08c379a00000000000000000000000000000000000000000000000000000000081526004016112d990611db7565b60405180910390fd5b60008190505b6001600e805490506112fa9190612093565b8110156113bb57600e6001826113109190611fb2565b8154811061132157611320612365565b5b9060005260206000200160009054906101000a900473ffffffffffffffffffffffffffffffffffffffff16600e82815481106113605761135f612365565b5b9060005260206000200160006101000a81548173ffffffffffffffffffffffffffffffffffffffff021916908373ffffffffffffffffffffffffffffffffffffffff16021790555080806113b390612202565b9150506112e8565b50600e8054806113ce576113cd612336565b5b6001900381819060005260206000200160006101000a81549073ffffffffffffffffffffffffffffffffffffffff0219169055905550565b82805482825590600052602060002090810192821561147f579160200282015b8281111561147e5782518260006101000a81548173ffffffffffffffffffffffffffffffffffffffff021916908373ffffffffffffffffffffffffffffffffffffffff16021790555091602001919060010190611426565b5b50905061148c91906115ed565b5090565b82805461149c9061219f565b90600052602060002090601f0160209004810192826114be5760008555611505565b82601f106114d757805160ff1916838001178555611505565b82800160010185558215611505579182015b828111156115045782518255916020019190600101906114e9565b5b50905061151291906115ed565b5090565b82805482825590600052602060002090810192821561158f579160200282015b8281111561158e5782518260006101000a81548173ffffffffffffffffffffffffffffffffffffffff021916908373ffffffffffffffffffffffffffffffffffffffff16021790555091602001919060010190611536565b5b50905061159c91906115ed565b5090565b8280548282559060005260206000209081019282156115dc579160200282015b828111156115db5782518255916020019190600101906115c0565b5b5090506115e991906115ed565b5090565b5b808211156116065760008160009055506001016115ee565b5090565b600061161d61161884611e72565b611e4d565b905080838252602082019050828560208602820111156116405761163f6123c8565b5b60005b858110156116705781611656888261172d565b845260208401935060208301925050600181019050611643565b5050509392505050565b600061168d61168884611e9e565b611e4d565b9050828152602081018484840111156116a9576116a86123cd565b5b6116b484828561215d565b509392505050565b6000813590506116cb81612494565b92915050565b600082601f8301126116e6576116e56123c3565b5b81356116f684826020860161160a565b91505092915050565b600082601f830112611714576117136123c3565b5b813561172484826020860161167a565b91505092915050565b60008135905061173c816124ab565b92915050565b600081519050611751816124ab565b92915050565b60006020828403121561176d5761176c6123d7565b5b600061177b848285016116bc565b91505092915050565b60006020828403121561179a576117996123d7565b5b60006117a88482850161172d565b91505092915050565b6000602082840312156117c7576117c66123d7565b5b60006117d584828501611742565b91505092915050565b600080604083850312156117f5576117f46123d7565b5b60006118038582860161172d565b925050602083013567ffffffffffffffff811115611824576118236123d2565b5b611830858286016116d1565b9150509250929050565b600080600060608486031215611853576118526123d7565b5b60006118618682870161172d565b935050602084013567ffffffffffffffff811115611882576118816123d2565b5b61188e868287016116ff565b925050604061189f8682870161172d565b9150509250925092565b60006118b583836118ed565b60208301905092915050565b60006118cd838361190b565b60208301905092915050565b60006118e58383611b99565b905092915050565b6118f6816120d9565b82525050565b611905816120d9565b82525050565b611914816120c7565b82525050565b611923816120c7565b82525050565b600061193482611eff565b61193e8185611f52565b935061194983611ecf565b8060005b8381101561197a57815161196188826118c1565b975061196c83611f2b565b92505060018101905061194d565b5085935050505092915050565b600061199282611f0a565b61199c8185611f63565b93506119a783611edf565b8060005b838110156119d85781516119bf88826118a9565b97506119ca83611f38565b9250506001810190506119ab565b5085935050505092915050565b60006119f082611f15565b6119fa8185611f74565b935083602082028501611a0c85611eef565b8060005b85811015611a485784840389528151611a2985826118d9565b9450611a3483611f45565b925060208a01995050600181019050611a10565b50829750879550505050505092915050565b611a63816120eb565b82525050565b611a72816120f7565b82525050565b6000611a8382611f20565b611a8d8185611f90565b9350611a9d81856020860161216c565b611aa6816123dc565b840191505092915050565b6000611abc82611f20565b611ac68185611fa1565b9350611ad681856020860161216c565b611adf816123dc565b840191505092915050565b6000611af7601b83611fa1565b9150611b02826123ed565b602082019050919050565b6000611b1a602083611fa1565b9150611b2582612416565b602082019050919050565b6000611b3d600083611f85565b9150611b488261243f565b600082019050919050565b6000611b60601a83611fa1565b9150611b6b82612442565b602082019050919050565b6000611b83601283611fa1565b9150611b8e8261246b565b602082019050919050565b60006080830160008301518482036000860152611bb68282611929565b91505060208301518482036020860152611bd08282611a78565b9150506040830151611be56040860182611c12565b506060830151611bf86060860182611c12565b508091505092915050565b611c0c81612101565b82525050565b611c1b8161212f565b82525050565b611c2a8161212f565b82525050565b611c3981612139565b82525050565b611c4881612149565b82525050565b6000611c5982611b30565b9150819050919050565b6000602082019050611c7860008301846118fc565b92915050565b6000604082019050611c93600083018561191a565b611ca0602083018461191a565b9392505050565b60006020820190508181036000830152611cc18184611987565b905092915050565b60006020820190508181036000830152611ce381846119e5565b905092915050565b6000602082019050611d006000830184611a5a565b92915050565b600060a082019050611d1b6000830188611a69565b611d286020830187611c3f565b611d356040830186611c03565b611d426060830185611c30565b611d4f6080830184611c30565b9695505050505050565b60006060820190508181036000830152611d738186611ab1565b9050611d826020830185611c21565b611d8f6040830184611c21565b949350505050565b60006020820190508181036000830152611db081611aea565b9050919050565b60006020820190508181036000830152611dd081611b0d565b9050919050565b60006020820190508181036000830152611df081611b53565b9050919050565b60006020820190508181036000830152611e1081611b76565b9050919050565b6000602082019050611e2c6000830184611c21565b92915050565b6000602082019050611e476000830184611c30565b92915050565b6000611e57611e68565b9050611e6382826121d1565b919050565b6000604051905090565b600067ffffffffffffffff821115611e8d57611e8c612394565b5b602082029050602081019050919050565b600067ffffffffffffffff821115611eb957611eb8612394565b5b611ec2826123dc565b9050602081019050919050565b6000819050602082019050919050565b6000819050602082019050919050565b6000819050602082019050919050565b600081519050919050565b600081519050919050565b600081519050919050565b600081519050919050565b6000602082019050919050565b6000602082019050919050565b6000602082019050919050565b600082825260208201905092915050565b600082825260208201905092915050565b600082825260208201905092915050565b600081905092915050565b600082825260208201905092915050565b600082825260208201905092915050565b6000611fbd8261212f565b9150611fc88361212f565b9250827fffffffffffffffffffffffffffffffffffffffffffffffffffffffffffffffff03821115611ffd57611ffc6122a9565b5b828201905092915050565b60006120138261212f565b915061201e8361212f565b92508261202e5761202d6122d8565b5b828204905092915050565b60006120448261212f565b915061204f8361212f565b9250817fffffffffffffffffffffffffffffffffffffffffffffffffffffffffffffffff0483118215151615612088576120876122a9565b5b828202905092915050565b600061209e8261212f565b91506120a98361212f565b9250828210156120bc576120bb6122a9565b5b828203905092915050565b60006120d28261210f565b9050919050565b60006120e48261210f565b9050919050565b60008115159050919050565b6000819050919050565b600061ffff82169050919050565b600073ffffffffffffffffffffffffffffffffffffffff82169050919050565b6000819050919050565b600063ffffffff82169050919050565b600067ffffffffffffffff82169050919050565b82818337600083830152505050565b60005b8381101561218a57808201518184015260208101905061216f565b83811115612199576000848401525b50505050565b600060028204905060018216806121b757607f821691505b602082108114156121cb576121ca612307565b5b50919050565b6121da826123dc565b810181811067ffffffffffffffff821117156121f9576121f8612394565b5b80604052505050565b600061220d8261212f565b91507fffffffffffffffffffffffffffffffffffffffffffffffffffffffffffffffff8214156122405761223f6122a9565b5b600182019050919050565b600061225682612139565b915063ffffffff82141561226d5761226c6122a9565b5b600182019050919050565b60006122838261212f565b915061228e8361212f565b92508261229e5761229d6122d8565b5b828206905092915050565b7f4e487b7100000000000000000000000000000000000000000000000000000000600052601160045260246000fd5b7f4e487b7100000000000000000000000000000000000000000000000000000000600052601260045260246000fd5b7f4e487b7100000000000000000000000000000000000000000000000000000000600052602260045260246000fd5b7f4e487b7100000000000000000000000000000000000000000000000000000000600052603160045260246000fd5b7f4e487b7100000000000000000000000000000000000000000000000000000000600052603260045260246000fd5b7f4e487b7100000000000000000000000000000000000000000000000000000000600052604160045260246000fd5b600080fd5b600080fd5b600080fd5b600080fd5b600080fd5b6000601f19601f8301169050919050565b7f54686520616d6f756e742073656e7420697320746f6f206c6f772e0000000000600082015250565b7f496e6465782070726f7669646564206973206f7574206f6620626f756e64732e600082015250565b50565b7f5573657220697320616c72656164792072656769737465726564000000000000600082015250565b7f4c6f74746572792068617320656e6465642e0000000000000000000000000000600082015250565b61249d816120c7565b81146124a857600080fd5b50565b6124b48161212f565b81146124bf57600080fd5b5056fea2646970667358221220befbe0c1ff3393b088f13c22a4d593bb92391a9f4c68586dff57a84f634e2c8664736f6c63430008070033",
  "linkReferences": {},
  "deployedLinkReferences": {}
}