{
  "_format": "hh-sol-artifact-1",
  "contractName": "Loethery",
  "sourceName": "contracts/Loethery.sol",
  "abi": [
    {
      "inputs": [
        {
          "internalType": "uint64",
          "name": "subscriptionId",
          "type": "uint64"
        }
      ],
      "stateMutability": "nonpayable",
      "type": "constructor"
    },
    {
      "inputs": [
        {
          "internalType": "address",
          "name": "have",
          "type": "address"
        },
        {
          "internalType": "address",
          "name": "want",
          "type": "address"
        }
      ],
      "name": "OnlyCoordinatorCanFulfill",
      "type": "error"
    },
    {
      "inputs": [],
      "name": "buyEntry",
      "outputs": [],
      "stateMutability": "payable",
      "type": "function"
    },
    {
      "inputs": [],
      "name": "finishLottery",
      "outputs": [],
      "stateMutability": "payable",
      "type": "function"
    },
    {
      "inputs": [],
      "name": "getActiveRound",
      "outputs": [
        {
          "components": [
            {
              "internalType": "address[]",
              "name": "winners",
              "type": "address[]"
            },
            {
              "internalType": "string",
              "name": "name",
              "type": "string"
            },
            {
              "internalType": "uint256",
              "name": "startDate",
              "type": "uint256"
            },
            {
              "internalType": "uint256",
              "name": "pot",
              "type": "uint256"
            }
          ],
          "internalType": "struct Loethery.Lottery",
          "name": "",
          "type": "tuple"
        }
      ],
      "stateMutability": "view",
      "type": "function"
    },
    {
      "inputs": [],
      "name": "getBalance",
      "outputs": [
        {
          "internalType": "uint256",
          "name": "",
          "type": "uint256"
        }
      ],
      "stateMutability": "view",
      "type": "function"
    },
    {
      "inputs": [],
      "name": "getHistory",
      "outputs": [
        {
          "components": [
            {
              "internalType": "address[]",
              "name": "winners",
              "type": "address[]"
            },
            {
              "internalType": "string",
              "name": "name",
              "type": "string"
            },
            {
              "internalType": "uint256",
              "name": "startDate",
              "type": "uint256"
            },
            {
              "internalType": "uint256",
              "name": "pot",
              "type": "uint256"
            }
          ],
          "internalType": "struct Loethery.Lottery[]",
          "name": "",
          "type": "tuple[]"
        }
      ],
      "stateMutability": "view",
      "type": "function"
    },
    {
      "inputs": [],
      "name": "getPlayers",
      "outputs": [
        {
          "internalType": "address payable[]",
          "name": "",
          "type": "address[]"
        }
      ],
      "stateMutability": "view",
      "type": "function"
    },
    {
      "inputs": [],
      "name": "getPrice",
      "outputs": [
        {
          "internalType": "uint256",
          "name": "",
          "type": "uint256"
        }
      ],
      "stateMutability": "view",
      "type": "function"
    },
    {
      "inputs": [
        {
          "internalType": "uint256",
          "name": "",
          "type": "uint256"
        }
      ],
      "name": "history",
      "outputs": [
        {
          "internalType": "string",
          "name": "name",
          "type": "string"
        },
        {
          "internalType": "uint256",
          "name": "startDate",
          "type": "uint256"
        },
        {
          "internalType": "uint256",
          "name": "pot",
          "type": "uint256"
        }
      ],
      "stateMutability": "view",
      "type": "function"
    },
    {
      "inputs": [],
      "name": "isOwner",
      "outputs": [
        {
          "internalType": "bool",
          "name": "",
          "type": "bool"
        }
      ],
      "stateMutability": "view",
      "type": "function"
    },
    {
      "inputs": [
        {
          "internalType": "address",
          "name": "_user",
          "type": "address"
        }
      ],
      "name": "isParticipating",
      "outputs": [
        {
          "internalType": "bool",
          "name": "",
          "type": "bool"
        }
      ],
      "stateMutability": "view",
      "type": "function"
    },
    {
      "inputs": [],
      "name": "lotteryId",
      "outputs": [
        {
          "internalType": "uint32",
          "name": "",
          "type": "uint32"
        }
      ],
      "stateMutability": "view",
      "type": "function"
    },
    {
      "inputs": [
        {
          "internalType": "uint256",
          "name": "",
          "type": "uint256"
        }
      ],
      "name": "players",
      "outputs": [
        {
          "internalType": "address payable",
          "name": "",
          "type": "address"
        }
      ],
      "stateMutability": "view",
      "type": "function"
    },
    {
      "inputs": [
        {
          "internalType": "uint256",
          "name": "requestId",
          "type": "uint256"
        },
        {
          "internalType": "uint256[]",
          "name": "randomWords",
          "type": "uint256[]"
        }
      ],
      "name": "rawFulfillRandomWords",
      "outputs": [],
      "stateMutability": "nonpayable",
      "type": "function"
    },
    {
      "inputs": [
        {
          "internalType": "uint256",
          "name": "",
          "type": "uint256"
        }
      ],
      "name": "s_randomWords",
      "outputs": [
        {
          "internalType": "uint256",
          "name": "",
          "type": "uint256"
        }
      ],
      "stateMutability": "view",
      "type": "function"
    },
    {
      "inputs": [],
      "name": "s_requestId",
      "outputs": [
        {
          "internalType": "uint256",
          "name": "",
          "type": "uint256"
        }
      ],
      "stateMutability": "view",
      "type": "function"
    },
    {
      "inputs": [
        {
          "internalType": "uint256",
          "name": "_price",
          "type": "uint256"
        },
        {
          "internalType": "string",
          "name": "_name",
          "type": "string"
        },
        {
          "internalType": "uint256",
          "name": "_startDate",
          "type": "uint256"
        }
      ],
      "name": "startLottery",
      "outputs": [],
      "stateMutability": "nonpayable",
      "type": "function"
    },
    {
      "inputs": [],
      "name": "withdraw",
      "outputs": [],
      "stateMutability": "payable",
      "type": "function"
    }
  ],
  "bytecode": "0x60a0604052736168499c0cffcacd319c818142124b7a15e857ab600260006101000a81548173ffffffffffffffffffffffffffffffffffffffff021916908373ffffffffffffffffffffffffffffffffffffffff1602179055507301be23585060835e02b77ef475b0cc51aa1e0709600360006101000a81548173ffffffffffffffffffffffffffffffffffffffff021916908373ffffffffffffffffffffffffffffffffffffffff1602179055507fd89b2bf150e3b9e13446986e571fb9cab24b13cea0a43ea20a6049a85cc807cc60001b600455620186a0600560006101000a81548163ffffffff021916908363ffffffff1602179055506003600560046101000a81548161ffff021916908361ffff1602179055506002600560066101000a81548163ffffffff021916908363ffffffff1602179055506000600860186101000a81548160ff0219169083151502179055506040518060400160405280604660ff168152602001601960ff168152506010906002620001839291906200036a565b503480156200019157600080fd5b5060405162002dbc38038062002dbc8339818101604052810190620001b79190620003f7565b600260009054906101000a900473ffffffffffffffffffffffffffffffffffffffff168073ffffffffffffffffffffffffffffffffffffffff1660808173ffffffffffffffffffffffffffffffffffffffff1660601b8152505050600260009054906101000a900473ffffffffffffffffffffffffffffffffffffffff166000806101000a81548173ffffffffffffffffffffffffffffffffffffffff021916908373ffffffffffffffffffffffffffffffffffffffff160217905550600360009054906101000a900473ffffffffffffffffffffffffffffffffffffffff16600160006101000a81548173ffffffffffffffffffffffffffffffffffffffff021916908373ffffffffffffffffffffffffffffffffffffffff16021790555033600860006101000a81548173ffffffffffffffffffffffffffffffffffffffff021916908373ffffffffffffffffffffffffffffffffffffffff16021790555080600160146101000a81548167ffffffffffffffff021916908367ffffffffffffffff1602179055506000600860146101000a81548163ffffffff021916908363ffffffff160217905550506200045c565b828054828255906000526020600020908101928215620003ae579160200282015b82811115620003ad578251829060ff169055916020019190600101906200038b565b5b509050620003bd9190620003c1565b5090565b5b80821115620003dc576000816000905550600101620003c2565b5090565b600081519050620003f18162000442565b92915050565b60006020828403121562000410576200040f6200043d565b5b60006200042084828501620003e0565b91505092915050565b600067ffffffffffffffff82169050919050565b600080fd5b6200044d8162000429565b81146200045957600080fd5b50565b60805160601c61293a62000482600039600081816106ff0152610753015261293a6000f3fe6080604052600436106100fe5760003560e01c80638f32d59b11610095578063e580f47b11610064578063e580f47b146102b4578063e89e106a146102df578063f4caee881461030a578063f6eaffc814610347578063f71d96cb14610384576100fe565b80638f32d59b146101f457806398d5fdca1461021f578063a7a38f0b1461024a578063aa15efc814610289576100fe565b80632c906ba2116100d15780632c906ba2146101ab57806335c13f30146101b55780633ccfd60b146101bf5780638b5b9ccc146101c9576100fe565b806306c5b7a01461010357806312065fe01461012e5780631a1ec86e146101595780631fe543e314610182575b600080fd5b34801561010f57600080fd5b506101186103c1565b6040516101259190612196565b60405180910390f35b34801561013a57600080fd5b5061014361055e565b60405161015091906121b8565b60405180910390f35b34801561016557600080fd5b50610180600480360381019061017b9190611a86565b610566565b005b34801561018e57600080fd5b506101a960048036038101906101a49190611a2a565b6106fd565b005b6101b36107bd565b005b6101bd610b8e565b005b6101c7610cee565b005b3480156101d557600080fd5b506101de610d91565b6040516101eb9190611fc6565b60405180910390f35b34801561020057600080fd5b50610209610e1f565b604051610216919061200a565b60405180910390f35b34801561022b57600080fd5b50610234610e88565b60405161024191906121b8565b60405180910390f35b34801561025657600080fd5b50610271600480360381019061026c91906119d0565b610ee1565b60405161028093929190612078565b60405180910390f35b34801561029557600080fd5b5061029e610fa3565b6040516102ab9190611fe8565b60405180910390f35b3480156102c057600080fd5b506102c9611136565b6040516102d691906121d3565b60405180910390f35b3480156102eb57600080fd5b506102f461114c565b60405161030191906121b8565b60405180910390f35b34801561031657600080fd5b50610331600480360381019061032c91906119a3565b611152565b60405161033e919061200a565b60405180910390f35b34801561035357600080fd5b5061036e600480360381019061036991906119d0565b611201565b60405161037b91906121b8565b60405180910390f35b34801561039057600080fd5b506103ab60048036038101906103a691906119d0565b611225565b6040516103b89190611f82565b60405180910390f35b6103c961154b565b600860189054906101000a900460ff16610418576040517f08c379a000000000000000000000000000000000000000000000000000000000815260040161040f90612136565b60405180910390fd5b6009604051806080016040529081600082018054806020026020016040519081016040528092919081815260200182805480156104aa57602002820191906000526020600020905b8160009054906101000a900473ffffffffffffffffffffffffffffffffffffffff1673ffffffffffffffffffffffffffffffffffffffff1681526020019060010190808311610460575b505050505081526020016001820180546104c390612540565b80601f01602080910402602001604051908101604052809291908181526020018280546104ef90612540565b801561053c5780601f106105115761010080835404028352916020019161053c565b820191906000526020600020905b81548152906001019060200180831161051f57829003601f168201915b5050505050815260200160028201548152602001600382015481525050905090565b600047905090565b600860009054906101000a900473ffffffffffffffffffffffffffffffffffffffff1673ffffffffffffffffffffffffffffffffffffffff163373ffffffffffffffffffffffffffffffffffffffff16146105c057600080fd5b600860189054906101000a900460ff1615610610576040517f08c379a000000000000000000000000000000000000000000000000000000000815260040161060790612116565b60405180910390fd5b610618611264565b82600f819055506040518060800160405280600067ffffffffffffffff81111561064557610644612735565b5b6040519080825280602002602001820160405280156106735781602001602082028036833780820191505090505b5081526020018381526020018281526020016000815250600960008201518160000190805190602001906106a8929190611573565b5060208201518160010190805190602001906106c59291906115fd565b5060408201518160020155606082015181600301559050506001600860186101000a81548160ff021916908315150217905550505050565b7f000000000000000000000000000000000000000000000000000000000000000073ffffffffffffffffffffffffffffffffffffffff163373ffffffffffffffffffffffffffffffffffffffff16146107af57337f00000000000000000000000000000000000000000000000000000000000000006040517f1cf993f40000000000000000000000000000000000000000000000000000000081526004016107a6929190611f9d565b60405180910390fd5b6107b982826113c5565b5050565b600860009054906101000a900473ffffffffffffffffffffffffffffffffffffffff1673ffffffffffffffffffffffffffffffffffffffff163373ffffffffffffffffffffffffffffffffffffffff161461081757600080fd5b600860189054906101000a900460ff16610866576040517f08c379a000000000000000000000000000000000000000000000000000000000815260040161085d906120d6565b60405180910390fd5b6000600860186101000a81548160ff02191690831515021790555060005b6002811015610a70576000600e80549050600683815481106108a9576108a8612706565b5b90600052602060002001546108be9190612619565b90506009600001600e82815481106108d9576108d8612706565b5b9060005260206000200160009054906101000a900473ffffffffffffffffffffffffffffffffffffffff169080600181540180825580915050600190039060005260206000200160009091909190916101000a81548173ffffffffffffffffffffffffffffffffffffffff021916908373ffffffffffffffffffffffffffffffffffffffff1602179055506000600e828154811061097a57610979612706565b5b9060005260206000200160009054906101000a900473ffffffffffffffffffffffffffffffffffffffff1673ffffffffffffffffffffffffffffffffffffffff166064601085815481106109d1576109d0612706565b5b90600052602060002001546009600301546109ec91906123da565b6109f691906123a9565b604051610a0290611f6d565b60006040518083038185875af1925050503d8060008114610a3f576040519150601f19603f3d011682016040523d82523d6000602084013e610a44565b606091505b5050905080610a5257600080fd5b610a5b826113e0565b50508080610a68906125a3565b915050610884565b50600d600990806001815401808255809150506001900390600052602060002090600402016000909190919091506000820181600001908054610ab4929190611683565b506001820181600101908054610ac990612540565b610ad49291906116d5565b50600282015481600201556003820154816003015550506008601481819054906101000a900463ffffffff1680929190610b0d906125ec565b91906101000a81548163ffffffff021916908363ffffffff16021790555050600067ffffffffffffffff811115610b4757610b46612735565b5b604051908082528060200260200182016040528015610b755781602001602082028036833780820191505090505b50600e9080519060200190610b8b929190611762565b50565b600860189054906101000a900460ff16610bdd576040517f08c379a0000000000000000000000000000000000000000000000000000000008152600401610bd490612176565b60405180910390fd5b610be633611152565b15610c26576040517f08c379a0000000000000000000000000000000000000000000000000000000008152600401610c1d90612156565b60405180910390fd5b600f54341015610c6b576040517f08c379a0000000000000000000000000000000000000000000000000000000008152600401610c62906120b6565b60405180910390fd5b600f5460096003016000828254610c829190612353565b92505081905550600e339080600181540180825580915050600190039060005260206000200160009091909190916101000a81548173ffffffffffffffffffffffffffffffffffffffff021916908373ffffffffffffffffffffffffffffffffffffffff160217905550565b600860009054906101000a900473ffffffffffffffffffffffffffffffffffffffff1673ffffffffffffffffffffffffffffffffffffffff163373ffffffffffffffffffffffffffffffffffffffff1614610d4857600080fd5b3373ffffffffffffffffffffffffffffffffffffffff166108fc479081150290604051600060405180830381858888f19350505050158015610d8e573d6000803e3d6000fd5b50565b6060600e805480602002602001604051908101604052809291908181526020018280548015610e1557602002820191906000526020600020905b8160009054906101000a900473ffffffffffffffffffffffffffffffffffffffff1673ffffffffffffffffffffffffffffffffffffffff1681526020019060010190808311610dcb575b5050505050905090565b6000600860009054906101000a900473ffffffffffffffffffffffffffffffffffffffff1673ffffffffffffffffffffffffffffffffffffffff163373ffffffffffffffffffffffffffffffffffffffff161415610e805760019050610e85565b600090505b90565b6000600860189054906101000a900460ff16610ed9576040517f08c379a0000000000000000000000000000000000000000000000000000000008152600401610ed090612136565b60405180910390fd5b600f54905090565b600d8181548110610ef157600080fd5b9060005260206000209060040201600091509050806001018054610f1490612540565b80601f0160208091040260200160405190810160405280929190818152602001828054610f4090612540565b8015610f8d5780601f10610f6257610100808354040283529160200191610f8d565b820191906000526020600020905b815481529060010190602001808311610f7057829003601f168201915b5050505050908060020154908060030154905083565b6060600d805480602002602001604051908101604052809291908181526020016000905b8282101561112d57838290600052602060002090600402016040518060800160405290816000820180548060200260200160405190810160405280929190818152602001828054801561106f57602002820191906000526020600020905b8160009054906101000a900473ffffffffffffffffffffffffffffffffffffffff1673ffffffffffffffffffffffffffffffffffffffff1681526020019060010190808311611025575b5050505050815260200160018201805461108890612540565b80601f01602080910402602001604051908101604052809291908181526020018280546110b490612540565b80156111015780601f106110d657610100808354040283529160200191611101565b820191906000526020600020905b8154815290600101906020018083116110e457829003601f168201915b505050505081526020016002820154815260200160038201548152505081526020019060010190610fc7565b50505050905090565b600860149054906101000a900463ffffffff1681565b60075481565b600080600090505b600e805490508110156111f6578273ffffffffffffffffffffffffffffffffffffffff16600e828154811061119257611191612706565b5b9060005260206000200160009054906101000a900473ffffffffffffffffffffffffffffffffffffffff1673ffffffffffffffffffffffffffffffffffffffff1614156111e35760019150506111fc565b80806111ee906125a3565b91505061115a565b50600090505b919050565b6006818154811061121157600080fd5b906000526020600020016000915090505481565b600e818154811061123557600080fd5b906000526020600020016000915054906101000a900473ffffffffffffffffffffffffffffffffffffffff1681565b600860009054906101000a900473ffffffffffffffffffffffffffffffffffffffff1673ffffffffffffffffffffffffffffffffffffffff163373ffffffffffffffffffffffffffffffffffffffff16146112be57600080fd5b60008054906101000a900473ffffffffffffffffffffffffffffffffffffffff1673ffffffffffffffffffffffffffffffffffffffff16635d3b1d30600454600160149054906101000a900467ffffffffffffffff16600560049054906101000a900461ffff16600560009054906101000a900463ffffffff16600560069054906101000a900463ffffffff166040518663ffffffff1660e01b815260040161136b959493929190612025565b602060405180830381600087803b15801561138557600080fd5b505af1158015611399573d6000803e3d6000fd5b505050506040513d601f19601f820116820180604052508101906113bd91906119fd565b600781905550565b80600690805190602001906113db9291906117ec565b505050565b600e805490508110611427576040517f08c379a000000000000000000000000000000000000000000000000000000000815260040161141e906120f6565b60405180910390fd5b60008190505b6001600e8054905061143f9190612434565b81101561150057600e6001826114559190612353565b8154811061146657611465612706565b5b9060005260206000200160009054906101000a900473ffffffffffffffffffffffffffffffffffffffff16600e82815481106114a5576114a4612706565b5b9060005260206000200160006101000a81548173ffffffffffffffffffffffffffffffffffffffff021916908373ffffffffffffffffffffffffffffffffffffffff16021790555080806114f8906125a3565b91505061142d565b50600e805480611513576115126126d7565b5b6001900381819060005260206000200160006101000a81549073ffffffffffffffffffffffffffffffffffffffff0219169055905550565b6040518060800160405280606081526020016060815260200160008152602001600081525090565b8280548282559060005260206000209081019282156115ec579160200282015b828111156115eb5782518260006101000a81548173ffffffffffffffffffffffffffffffffffffffff021916908373ffffffffffffffffffffffffffffffffffffffff16021790555091602001919060010190611593565b5b5090506115f99190611839565b5090565b82805461160990612540565b90600052602060002090601f01602090048101928261162b5760008555611672565b82601f1061164457805160ff1916838001178555611672565b82800160010185558215611672579182015b82811115611671578251825591602001919060010190611656565b5b50905061167f9190611839565b5090565b8280548282559060005260206000209081019282156116c45760005260206000209182015b828111156116c35782548255916001019190600101906116a8565b5b5090506116d19190611839565b5090565b8280546116e190612540565b90600052602060002090601f0160209004810192826117035760008555611751565b82601f106117145780548555611751565b8280016001018555821561175157600052602060002091601f016020900482015b82811115611750578254825591600101919060010190611735565b5b50905061175e9190611839565b5090565b8280548282559060005260206000209081019282156117db579160200282015b828111156117da5782518260006101000a81548173ffffffffffffffffffffffffffffffffffffffff021916908373ffffffffffffffffffffffffffffffffffffffff16021790555091602001919060010190611782565b5b5090506117e89190611839565b5090565b828054828255906000526020600020908101928215611828579160200282015b8281111561182757825182559160200191906001019061180c565b5b5090506118359190611839565b5090565b5b8082111561185257600081600090555060010161183a565b5090565b600061186961186484612213565b6121ee565b9050808382526020820190508285602086028201111561188c5761188b612769565b5b60005b858110156118bc57816118a28882611979565b84526020840193506020830192505060018101905061188f565b5050509392505050565b60006118d96118d48461223f565b6121ee565b9050828152602081018484840111156118f5576118f461276e565b5b6119008482856124fe565b509392505050565b600081359050611917816128d6565b92915050565b600082601f83011261193257611931612764565b5b8135611942848260208601611856565b91505092915050565b600082601f8301126119605761195f612764565b5b81356119708482602086016118c6565b91505092915050565b600081359050611988816128ed565b92915050565b60008151905061199d816128ed565b92915050565b6000602082840312156119b9576119b8612778565b5b60006119c784828501611908565b91505092915050565b6000602082840312156119e6576119e5612778565b5b60006119f484828501611979565b91505092915050565b600060208284031215611a1357611a12612778565b5b6000611a218482850161198e565b91505092915050565b60008060408385031215611a4157611a40612778565b5b6000611a4f85828601611979565b925050602083013567ffffffffffffffff811115611a7057611a6f612773565b5b611a7c8582860161191d565b9150509250929050565b600080600060608486031215611a9f57611a9e612778565b5b6000611aad86828701611979565b935050602084013567ffffffffffffffff811115611ace57611acd612773565b5b611ada8682870161194b565b9250506040611aeb86828701611979565b9150509250925092565b6000611b018383611b39565b60208301905092915050565b6000611b198383611b57565b60208301905092915050565b6000611b318383611e4e565b905092915050565b611b428161247a565b82525050565b611b518161247a565b82525050565b611b6081612468565b82525050565b611b6f81612468565b82525050565b6000611b80826122a0565b611b8a81856122f3565b9350611b9583612270565b8060005b83811015611bc6578151611bad8882611b0d565b9750611bb8836122cc565b925050600181019050611b99565b5085935050505092915050565b6000611bde826122ab565b611be88185612304565b9350611bf383612280565b8060005b83811015611c24578151611c0b8882611af5565b9750611c16836122d9565b925050600181019050611bf7565b5085935050505092915050565b6000611c3c826122b6565b611c468185612315565b935083602082028501611c5885612290565b8060005b85811015611c945784840389528151611c758582611b25565b9450611c80836122e6565b925060208a01995050600181019050611c5c565b50829750879550505050505092915050565b611caf8161248c565b82525050565b611cbe81612498565b82525050565b6000611ccf826122c1565b611cd98185612331565b9350611ce981856020860161250d565b611cf28161277d565b840191505092915050565b6000611d08826122c1565b611d128185612342565b9350611d2281856020860161250d565b611d2b8161277d565b840191505092915050565b6000611d43601b83612342565b9150611d4e8261278e565b602082019050919050565b6000611d66601083612342565b9150611d71826127b7565b602082019050919050565b6000611d89602083612342565b9150611d94826127e0565b602082019050919050565b6000611dac602183612342565b9150611db782612809565b604082019050919050565b6000611dcf601a83612342565b9150611dda82612858565b602082019050919050565b6000611df2600083612326565b9150611dfd82612881565b600082019050919050565b6000611e15601a83612342565b9150611e2082612884565b602082019050919050565b6000611e38601283612342565b9150611e43826128ad565b602082019050919050565b60006080830160008301518482036000860152611e6b8282611b75565b91505060208301518482036020860152611e858282611cc4565b9150506040830151611e9a6040860182611f31565b506060830151611ead6060860182611f31565b508091505092915050565b60006080830160008301518482036000860152611ed58282611b75565b91505060208301518482036020860152611eef8282611cc4565b9150506040830151611f046040860182611f31565b506060830151611f176060860182611f31565b508091505092915050565b611f2b816124a2565b82525050565b611f3a816124d0565b82525050565b611f49816124d0565b82525050565b611f58816124da565b82525050565b611f67816124ea565b82525050565b6000611f7882611de5565b9150819050919050565b6000602082019050611f976000830184611b48565b92915050565b6000604082019050611fb26000830185611b66565b611fbf6020830184611b66565b9392505050565b60006020820190508181036000830152611fe08184611bd3565b905092915050565b600060208201905081810360008301526120028184611c31565b905092915050565b600060208201905061201f6000830184611ca6565b92915050565b600060a08201905061203a6000830188611cb5565b6120476020830187611f5e565b6120546040830186611f22565b6120616060830185611f4f565b61206e6080830184611f4f565b9695505050505050565b600060608201905081810360008301526120928186611cfd565b90506120a16020830185611f40565b6120ae6040830184611f40565b949350505050565b600060208201905081810360008301526120cf81611d36565b9050919050565b600060208201905081810360008301526120ef81611d59565b9050919050565b6000602082019050818103600083015261210f81611d7c565b9050919050565b6000602082019050818103600083015261212f81611d9f565b9050919050565b6000602082019050818103600083015261214f81611dc2565b9050919050565b6000602082019050818103600083015261216f81611e08565b9050919050565b6000602082019050818103600083015261218f81611e2b565b9050919050565b600060208201905081810360008301526121b08184611eb8565b905092915050565b60006020820190506121cd6000830184611f40565b92915050565b60006020820190506121e86000830184611f4f565b92915050565b60006121f8612209565b90506122048282612572565b919050565b6000604051905090565b600067ffffffffffffffff82111561222e5761222d612735565b5b602082029050602081019050919050565b600067ffffffffffffffff82111561225a57612259612735565b5b6122638261277d565b9050602081019050919050565b6000819050602082019050919050565b6000819050602082019050919050565b6000819050602082019050919050565b600081519050919050565b600081519050919050565b600081519050919050565b600081519050919050565b6000602082019050919050565b6000602082019050919050565b6000602082019050919050565b600082825260208201905092915050565b600082825260208201905092915050565b600082825260208201905092915050565b600081905092915050565b600082825260208201905092915050565b600082825260208201905092915050565b600061235e826124d0565b9150612369836124d0565b9250827fffffffffffffffffffffffffffffffffffffffffffffffffffffffffffffffff0382111561239e5761239d61264a565b5b828201905092915050565b60006123b4826124d0565b91506123bf836124d0565b9250826123cf576123ce612679565b5b828204905092915050565b60006123e5826124d0565b91506123f0836124d0565b9250817fffffffffffffffffffffffffffffffffffffffffffffffffffffffffffffffff04831182151516156124295761242861264a565b5b828202905092915050565b600061243f826124d0565b915061244a836124d0565b92508282101561245d5761245c61264a565b5b828203905092915050565b6000612473826124b0565b9050919050565b6000612485826124b0565b9050919050565b60008115159050919050565b6000819050919050565b600061ffff82169050919050565b600073ffffffffffffffffffffffffffffffffffffffff82169050919050565b6000819050919050565b600063ffffffff82169050919050565b600067ffffffffffffffff82169050919050565b82818337600083830152505050565b60005b8381101561252b578082015181840152602081019050612510565b8381111561253a576000848401525b50505050565b6000600282049050600182168061255857607f821691505b6020821081141561256c5761256b6126a8565b5b50919050565b61257b8261277d565b810181811067ffffffffffffffff8211171561259a57612599612735565b5b80604052505050565b60006125ae826124d0565b91507fffffffffffffffffffffffffffffffffffffffffffffffffffffffffffffffff8214156125e1576125e061264a565b5b600182019050919050565b60006125f7826124da565b915063ffffffff82141561260e5761260d61264a565b5b600182019050919050565b6000612624826124d0565b915061262f836124d0565b92508261263f5761263e612679565b5b828206905092915050565b7f4e487b7100000000000000000000000000000000000000000000000000000000600052601160045260246000fd5b7f4e487b7100000000000000000000000000000000000000000000000000000000600052601260045260246000fd5b7f4e487b7100000000000000000000000000000000000000000000000000000000600052602260045260246000fd5b7f4e487b7100000000000000000000000000000000000000000000000000000000600052603160045260246000fd5b7f4e487b7100000000000000000000000000000000000000000000000000000000600052603260045260246000fd5b7f4e487b7100000000000000000000000000000000000000000000000000000000600052604160045260246000fd5b600080fd5b600080fd5b600080fd5b600080fd5b600080fd5b6000601f19601f8301169050919050565b7f54686520616d6f756e742073656e7420697320746f6f206c6f772e0000000000600082015250565b7f4e6f20726f756e64206163746976652e00000000000000000000000000000000600082015250565b7f496e6465782070726f7669646564206973206f7574206f6620626f756e64732e600082015250565b7f416e6f7468657220726f756e6420697320616c72656164792072756e6e696e6760008201527f2e00000000000000000000000000000000000000000000000000000000000000602082015250565b7f4e6f20726f756e642063757272656e746c79206163746976652e000000000000600082015250565b50565b7f5573657220697320616c72656164792072656769737465726564000000000000600082015250565b7f4c6f74746572792068617320656e6465642e0000000000000000000000000000600082015250565b6128df81612468565b81146128ea57600080fd5b50565b6128f6816124d0565b811461290157600080fd5b5056fea2646970667358221220827a7c960a0b0ecf980767d44f038f8fffaf2aa7051b0066a8c77d991c35164a64736f6c63430008070033",
  "linkReferences": {},
  "deployedLinkReferences": {}
}